{
  "_format": "hh-sol-artifact-1",
  "contractName": "KataCoins",
  "sourceName": "contracts/KataCoins.sol",
  "abi": [
    {
      "anonymous": false,
      "inputs": [
        {
          "indexed": true,
          "internalType": "address",
          "name": "_owner",
          "type": "address"
        },
        {
          "indexed": true,
          "internalType": "address",
          "name": "_approved",
          "type": "address"
        },
        {
          "indexed": false,
          "internalType": "uint256",
          "name": "_tokenId",
          "type": "uint256"
        }
      ],
      "name": "Approval",
      "type": "event"
    },
    {
      "anonymous": false,
      "inputs": [
        {
          "indexed": true,
          "internalType": "address",
          "name": "previousOwner",
          "type": "address"
        },
        {
          "indexed": true,
          "internalType": "address",
          "name": "newOwner",
          "type": "address"
        }
      ],
      "name": "OwnershipTransferred",
      "type": "event"
    },
    {
      "anonymous": false,
      "inputs": [
        {
          "indexed": true,
          "internalType": "address",
          "name": "_from",
          "type": "address"
        },
        {
          "indexed": true,
          "internalType": "address",
          "name": "_to",
          "type": "address"
        },
        {
          "indexed": false,
          "internalType": "uint256",
          "name": "_tokenId",
          "type": "uint256"
        }
      ],
      "name": "Transfer",
      "type": "event"
    },
    {
      "inputs": [
        {
          "internalType": "address",
          "name": "user",
          "type": "address"
        },
        {
          "internalType": "uint256",
          "name": "kataId",
          "type": "uint256"
        }
      ],
      "name": "canExecuteKata",
      "outputs": [],
      "stateMutability": "view",
      "type": "function"
    },
    {
      "inputs": [
        {
          "internalType": "uint256",
          "name": "newFee",
          "type": "uint256"
        }
      ],
      "name": "changeLevelUpFee",
      "outputs": [],
      "stateMutability": "nonpayable",
      "type": "function"
    },
    {
      "inputs": [],
      "name": "contractName",
      "outputs": [
        {
          "internalType": "string",
          "name": "",
          "type": "string"
        }
      ],
      "stateMutability": "view",
      "type": "function"
    },
    {
      "inputs": [
        {
          "internalType": "string",
          "name": "name",
          "type": "string"
        },
        {
          "internalType": "string",
          "name": "statement",
          "type": "string"
        },
        {
          "internalType": "string",
          "name": "functionDeclaration",
          "type": "string"
        },
        {
          "internalType": "string",
          "name": "test",
          "type": "string"
        }
      ],
      "name": "createKata",
      "outputs": [
        {
          "internalType": "uint256",
          "name": "",
          "type": "uint256"
        }
      ],
      "stateMutability": "nonpayable",
      "type": "function"
    },
    {
      "inputs": [],
      "name": "getAllKata",
      "outputs": [
        {
          "components": [
            {
              "internalType": "uint256",
              "name": "id",
              "type": "uint256"
            },
            {
              "internalType": "string",
              "name": "name",
              "type": "string"
            },
            {
              "internalType": "string",
              "name": "statement",
              "type": "string"
            },
            {
              "internalType": "string",
              "name": "functionDeclaration",
              "type": "string"
            },
            {
              "internalType": "string",
              "name": "test",
              "type": "string"
            }
          ],
          "internalType": "struct KataCoins.Kata[]",
          "name": "",
          "type": "tuple[]"
        }
      ],
      "stateMutability": "view",
      "type": "function"
    },
    {
      "inputs": [],
      "name": "getCredit",
      "outputs": [
        {
          "internalType": "uint256",
          "name": "",
          "type": "uint256"
        }
      ],
      "stateMutability": "view",
      "type": "function"
    },
    {
      "inputs": [],
      "name": "getExecFee",
      "outputs": [
        {
          "internalType": "uint256",
          "name": "",
          "type": "uint256"
        }
      ],
      "stateMutability": "view",
      "type": "function"
    },
    {
      "inputs": [
        {
          "internalType": "uint256",
          "name": "kataId",
          "type": "uint256"
        }
      ],
      "name": "getKata",
      "outputs": [
        {
          "components": [
            {
              "components": [
                {
                  "internalType": "uint256",
                  "name": "id",
                  "type": "uint256"
                },
                {
                  "internalType": "string",
                  "name": "name",
                  "type": "string"
                },
                {
                  "internalType": "string",
                  "name": "statement",
                  "type": "string"
                },
                {
                  "internalType": "string",
                  "name": "functionDeclaration",
                  "type": "string"
                },
                {
                  "internalType": "string",
                  "name": "test",
                  "type": "string"
                }
              ],
              "internalType": "struct KataCoins.Kata",
              "name": "kata",
              "type": "tuple"
            },
            {
              "internalType": "bool",
              "name": "isOwned",
              "type": "bool"
            }
          ],
          "internalType": "struct KataCoins.Response",
          "name": "",
          "type": "tuple"
        }
      ],
      "stateMutability": "view",
      "type": "function"
    },
    {
      "inputs": [],
      "name": "isOwner",
      "outputs": [
        {
          "internalType": "bool",
          "name": "",
          "type": "bool"
        }
      ],
      "stateMutability": "view",
      "type": "function"
    },
    {
      "inputs": [],
      "name": "owner",
      "outputs": [
        {
          "internalType": "address",
          "name": "",
          "type": "address"
        }
      ],
      "stateMutability": "view",
      "type": "function"
    },
    {
      "inputs": [
        {
          "internalType": "uint256",
          "name": "_tokenId",
          "type": "uint256"
        }
      ],
      "name": "ownerOf",
      "outputs": [
        {
          "internalType": "address",
          "name": "_owner",
          "type": "address"
        }
      ],
      "stateMutability": "view",
      "type": "function"
    },
    {
      "inputs": [
        {
          "internalType": "uint256",
          "name": "nbTry",
          "type": "uint256"
        }
      ],
      "name": "payCredit",
      "outputs": [],
      "stateMutability": "payable",
      "type": "function"
    },
    {
      "inputs": [],
      "name": "renounceOwnership",
      "outputs": [],
      "stateMutability": "nonpayable",
      "type": "function"
    },
    {
      "inputs": [
        {
          "internalType": "address",
          "name": "to",
          "type": "address"
        },
        {
          "internalType": "uint256",
          "name": "tokenId",
          "type": "uint256"
        }
      ],
      "name": "transfer",
      "outputs": [],
      "stateMutability": "nonpayable",
      "type": "function"
    },
    {
      "inputs": [
        {
          "internalType": "address",
          "name": "newOwner",
          "type": "address"
        }
      ],
      "name": "transferOwnership",
      "outputs": [],
      "stateMutability": "nonpayable",
      "type": "function"
    },
    {
      "inputs": [
        {
          "internalType": "address",
          "name": "user",
          "type": "address"
        }
      ],
      "name": "tryKata",
      "outputs": [],
      "stateMutability": "nonpayable",
      "type": "function"
    }
  ],
  "bytecode": "0x60806040526040518060400160405280600981526020017f4b617461436f696e730000000000000000000000000000000000000000000000815250600190816200004a9190620003a9565b50600060025566038d7ea4c6800060035560146004553480156200006d57600080fd5b50336000806101000a81548173ffffffffffffffffffffffffffffffffffffffff021916908373ffffffffffffffffffffffffffffffffffffffff16021790555060008054906101000a900473ffffffffffffffffffffffffffffffffffffffff1673ffffffffffffffffffffffffffffffffffffffff16600073ffffffffffffffffffffffffffffffffffffffff167f8be0079c531659141344cd1fd0a4f28419497f9722a3daafe3b4186f6b6457e060405160405180910390a362000490565b600081519050919050565b7f4e487b7100000000000000000000000000000000000000000000000000000000600052604160045260246000fd5b7f4e487b7100000000000000000000000000000000000000000000000000000000600052602260045260246000fd5b60006002820490506001821680620001b157607f821691505b602082108103620001c757620001c662000169565b5b50919050565b60008190508160005260206000209050919050565b60006020601f8301049050919050565b600082821b905092915050565b600060088302620002317fffffffffffffffffffffffffffffffffffffffffffffffffffffffffffffffff82620001f2565b6200023d8683620001f2565b95508019841693508086168417925050509392505050565b6000819050919050565b6000819050919050565b60006200028a620002846200027e8462000255565b6200025f565b62000255565b9050919050565b6000819050919050565b620002a68362000269565b620002be620002b58262000291565b848454620001ff565b825550505050565b600090565b620002d5620002c6565b620002e28184846200029b565b505050565b5b818110156200030a57620002fe600082620002cb565b600181019050620002e8565b5050565b601f82111562000359576200032381620001cd565b6200032e84620001e2565b810160208510156200033e578190505b620003566200034d85620001e2565b830182620002e7565b50505b505050565b600082821c905092915050565b60006200037e600019846008026200035e565b1980831691505092915050565b60006200039983836200036b565b9150826002028217905092915050565b620003b4826200012f565b67ffffffffffffffff811115620003d057620003cf6200013a565b5b620003dc825462000198565b620003e98282856200030e565b600060209050601f8311600181146200042157600084156200040c578287015190505b6200041885826200038b565b86555062000488565b601f1984166200043186620001cd565b60005b828110156200045b5784890151825560018201915060208501945060208101905062000434565b868310156200047b578489015162000477601f8916826200036b565b8355505b6001600288020188555050505b505050505050565b6122cb80620004a06000396000f3fe6080604052600436106100f35760003560e01c8063858a37461161008a578063a9059cbb11610059578063a9059cbb1461031a578063d62605d514610343578063e2f805cd1461035f578063f2fde38b14610388576100f3565b8063858a37461461024a5780638da5cb5b146102875780638f32d59b146102b257806394d18e66146102dd576100f3565b806359296e7b116100c657806359296e7b146101a05780636352211e146101cb578063715018a61461020857806375d0c0dc1461021f576100f3565b80632bea65bf146100f85780634d3ffd9714610121578063537715df1461014c578063555e067314610175575b600080fd5b34801561010457600080fd5b5061011f600480360381019061011a91906115e2565b6103b1565b005b34801561012d57600080fd5b5061013661041c565b6040516101439190611628565b60405180910390f35b34801561015857600080fd5b50610173600480360381019061016e919061166f565b610426565b005b34801561018157600080fd5b5061018a61055f565b604051610197919061189b565b60405180910390f35b3480156101ac57600080fd5b506101b5610810565b6040516101c29190611628565b60405180910390f35b3480156101d757600080fd5b506101f260048036038101906101ed91906118bd565b6108d6565b6040516101ff91906118f9565b60405180910390f35b34801561021457600080fd5b5061021d610913565b005b34801561022b57600080fd5b506102346109e2565b604051610241919061195e565b60405180910390f35b34801561025657600080fd5b50610271600480360381019061026c91906119e5565b610a70565b60405161027e9190611628565b60405180910390f35b34801561029357600080fd5b5061029c610c80565b6040516102a991906118f9565b60405180910390f35b3480156102be57600080fd5b506102c7610ca9565b6040516102d49190611ae9565b60405180910390f35b3480156102e957600080fd5b5061030460048036038101906102ff91906118bd565b610d00565b6040516103119190611b50565b60405180910390f35b34801561032657600080fd5b50610341600480360381019061033c919061166f565b611098565b005b61035d600480360381019061035891906118bd565b611206565b005b34801561036b57600080fd5b50610386600480360381019061038191906118bd565b611333565b005b34801561039457600080fd5b506103af60048036038101906103aa91906115e2565b61134e565b005b6103b9610ca9565b6103c257600080fd5b6001600860008373ffffffffffffffffffffffffffffffffffffffff1673ffffffffffffffffffffffffffffffffffffffff16815260200190815260200160002060008282546104129190611ba1565b9250508190555050565b6000600354905090565b61042e610ca9565b61043757600080fd5b600073ffffffffffffffffffffffffffffffffffffffff166006600083815260200190815260200160002060009054906101000a900473ffffffffffffffffffffffffffffffffffffffff1673ffffffffffffffffffffffffffffffffffffffff16146104d9576040517f08c379a00000000000000000000000000000000000000000000000000000000081526004016104d090611c21565b60405180910390fd5b6000600860008473ffffffffffffffffffffffffffffffffffffffff1673ffffffffffffffffffffffffffffffffffffffff168152602001908152602001600020541161055b576040517f08c379a000000000000000000000000000000000000000000000000000000000815260040161055290611c8d565b60405180910390fd5b5050565b60606005805480602002602001604051908101604052809291908181526020016000905b8282101561080757838290600052602060002090600502016040518060a0016040529081600082015481526020016001820180546105c090611cdc565b80601f01602080910402602001604051908101604052809291908181526020018280546105ec90611cdc565b80156106395780601f1061060e57610100808354040283529160200191610639565b820191906000526020600020905b81548152906001019060200180831161061c57829003601f168201915b5050505050815260200160028201805461065290611cdc565b80601f016020809104026020016040519081016040528092919081815260200182805461067e90611cdc565b80156106cb5780601f106106a0576101008083540402835291602001916106cb565b820191906000526020600020905b8154815290600101906020018083116106ae57829003601f168201915b505050505081526020016003820180546106e490611cdc565b80601f016020809104026020016040519081016040528092919081815260200182805461071090611cdc565b801561075d5780601f106107325761010080835404028352916020019161075d565b820191906000526020600020905b81548152906001019060200180831161074057829003601f168201915b5050505050815260200160048201805461077690611cdc565b80601f01602080910402602001604051908101604052809291908181526020018280546107a290611cdc565b80156107ef5780601f106107c4576101008083540402835291602001916107ef565b820191906000526020600020905b8154815290600101906020018083116107d257829003601f168201915b50505050508152505081526020019060010190610583565b50505050905090565b60006108916040518060400160405280600981526020017f706179437265646974000000000000000000000000000000000000000000000081525033600860003373ffffffffffffffffffffffffffffffffffffffff1673ffffffffffffffffffffffffffffffffffffffff1681526020019081526020016000205461136b565b600860003373ffffffffffffffffffffffffffffffffffffffff1673ffffffffffffffffffffffffffffffffffffffff16815260200190815260200160002054905090565b60006006600083815260200190815260200160002060009054906101000a900473ffffffffffffffffffffffffffffffffffffffff169050919050565b61091b610ca9565b61092457600080fd5b600073ffffffffffffffffffffffffffffffffffffffff1660008054906101000a900473ffffffffffffffffffffffffffffffffffffffff1673ffffffffffffffffffffffffffffffffffffffff167f8be0079c531659141344cd1fd0a4f28419497f9722a3daafe3b4186f6b6457e060405160405180910390a360008060006101000a81548173ffffffffffffffffffffffffffffffffffffffff021916908373ffffffffffffffffffffffffffffffffffffffff160217905550565b600180546109ef90611cdc565b80601f0160208091040260200160405190810160405280929190818152602001828054610a1b90611cdc565b8015610a685780601f10610a3d57610100808354040283529160200191610a68565b820191906000526020600020905b815481529060010190602001808311610a4b57829003601f168201915b505050505081565b6000610a7a610ca9565b610a8357600080fd5b60056040518060a0016040528060025481526020018b8b8080601f016020809104026020016040519081016040528093929190818152602001838380828437600081840152601f19601f82011690508083019250505050505050815260200189898080601f016020809104026020016040519081016040528093929190818152602001838380828437600081840152601f19601f82011690508083019250505050505050815260200187878080601f016020809104026020016040519081016040528093929190818152602001838380828437600081840152601f19601f82011690508083019250505050505050815260200185858080601f016020809104026020016040519081016040528093929190818152602001838380828437600081840152601f19601f820116905080830192505050505050508152509080600181540180825580915050600190039060005260206000209060050201600090919091909150600082015181600001556020820151816001019081610c069190611ee8565b506040820151816002019081610c1c9190611ee8565b506060820151816003019081610c329190611ee8565b506080820151816004019081610c489190611ee8565b50505060026000815480929190610c5e90611fba565b91905055506001600254610c729190611ba1565b905098975050505050505050565b60008060009054906101000a900473ffffffffffffffffffffffffffffffffffffffff16905090565b60008060009054906101000a900473ffffffffffffffffffffffffffffffffffffffff1673ffffffffffffffffffffffffffffffffffffffff163373ffffffffffffffffffffffffffffffffffffffff1614905090565b610d08611529565b60005b600580549050811015611057578260058281548110610d2d57610d2c612002565b5b9060005260206000209060050201600001540361104457604051806040016040528060058381548110610d6357610d62612002565b5b90600052602060002090600502016040518060a001604052908160008201548152602001600182018054610d9690611cdc565b80601f0160208091040260200160405190810160405280929190818152602001828054610dc290611cdc565b8015610e0f5780601f10610de457610100808354040283529160200191610e0f565b820191906000526020600020905b815481529060010190602001808311610df257829003601f168201915b50505050508152602001600282018054610e2890611cdc565b80601f0160208091040260200160405190810160405280929190818152602001828054610e5490611cdc565b8015610ea15780601f10610e7657610100808354040283529160200191610ea1565b820191906000526020600020905b815481529060010190602001808311610e8457829003601f168201915b50505050508152602001600382018054610eba90611cdc565b80601f0160208091040260200160405190810160405280929190818152602001828054610ee690611cdc565b8015610f335780601f10610f0857610100808354040283529160200191610f33565b820191906000526020600020905b815481529060010190602001808311610f1657829003601f168201915b50505050508152602001600482018054610f4c90611cdc565b80601f0160208091040260200160405190810160405280929190818152602001828054610f7890611cdc565b8015610fc55780601f10610f9a57610100808354040283529160200191610fc5565b820191906000526020600020905b815481529060010190602001808311610fa857829003601f168201915b5050505050815250508152602001600073ffffffffffffffffffffffffffffffffffffffff166006600087815260200190815260200160002060009054906101000a900473ffffffffffffffffffffffffffffffffffffffff1673ffffffffffffffffffffffffffffffffffffffff1614151515815250915050611093565b808061104f90611fba565b915050610d0b565b506040517f08c379a000000000000000000000000000000000000000000000000000000000815260040161108a9061207d565b60405180910390fd5b919050565b6110a0610ca9565b6110a957600080fd5b600073ffffffffffffffffffffffffffffffffffffffff166006600083815260200190815260200160002060009054906101000a900473ffffffffffffffffffffffffffffffffffffffff1673ffffffffffffffffffffffffffffffffffffffff161461114b576040517f08c379a0000000000000000000000000000000000000000000000000000000008152600401611142906120e9565b60405180910390fd5b816006600083815260200190815260200160002060006101000a81548173ffffffffffffffffffffffffffffffffffffffff021916908373ffffffffffffffffffffffffffffffffffffffff1602179055508173ffffffffffffffffffffffffffffffffffffffff163373ffffffffffffffffffffffffffffffffffffffff167fddf252ad1be2c89b69c2b068fc378daa952ba7f163c4a11628f55a4df523b3ef836040516111fa9190611628565b60405180910390a35050565b60045481101561124b576040517f08c379a000000000000000000000000000000000000000000000000000000000815260040161124290612155565b60405180910390fd5b600354816112599190612175565b341461129a576040517f08c379a000000000000000000000000000000000000000000000000000000000815260040161129190612203565b60405180910390fd5b6112da6040518060400160405280600981526020017f7061794372656469740000000000000000000000000000000000000000000000815250338361136b565b80600860003373ffffffffffffffffffffffffffffffffffffffff1673ffffffffffffffffffffffffffffffffffffffff16815260200190815260200160002060008282546113299190612223565b9250508190555050565b61133b610ca9565b61134457600080fd5b8060038190555050565b611356610ca9565b61135f57600080fd5b6113688161140a565b50565b61140583838360405160240161138393929190612257565b6040516020818303038152906040527f0d26b925000000000000000000000000000000000000000000000000000000007bffffffffffffffffffffffffffffffffffffffffffffffffffffffff19166020820180517bffffffffffffffffffffffffffffffffffffffffffffffffffffffff8381831617835250505050611500565b505050565b600073ffffffffffffffffffffffffffffffffffffffff168173ffffffffffffffffffffffffffffffffffffffff160361144357600080fd5b8073ffffffffffffffffffffffffffffffffffffffff1660008054906101000a900473ffffffffffffffffffffffffffffffffffffffff1673ffffffffffffffffffffffffffffffffffffffff167f8be0079c531659141344cd1fd0a4f28419497f9722a3daafe3b4186f6b6457e060405160405180910390a3806000806101000a81548173ffffffffffffffffffffffffffffffffffffffff021916908373ffffffffffffffffffffffffffffffffffffffff16021790555050565b60008151905060006a636f6e736f6c652e6c6f679050602083016000808483855afa5050505050565b604051806040016040528061153c61154b565b81526020016000151581525090565b6040518060a0016040528060008152602001606081526020016060815260200160608152602001606081525090565b600080fd5b600080fd5b600073ffffffffffffffffffffffffffffffffffffffff82169050919050565b60006115af82611584565b9050919050565b6115bf816115a4565b81146115ca57600080fd5b50565b6000813590506115dc816115b6565b92915050565b6000602082840312156115f8576115f761157a565b5b6000611606848285016115cd565b91505092915050565b6000819050919050565b6116228161160f565b82525050565b600060208201905061163d6000830184611619565b92915050565b61164c8161160f565b811461165757600080fd5b50565b60008135905061166981611643565b92915050565b600080604083850312156116865761168561157a565b5b6000611694858286016115cd565b92505060206116a58582860161165a565b9150509250929050565b600081519050919050565b600082825260208201905092915050565b6000819050602082019050919050565b6116e48161160f565b82525050565b600081519050919050565b600082825260208201905092915050565b60005b83811015611724578082015181840152602081019050611709565b60008484015250505050565b6000601f19601f8301169050919050565b600061174c826116ea565b61175681856116f5565b9350611766818560208601611706565b61176f81611730565b840191505092915050565b600060a08301600083015161179260008601826116db565b50602083015184820360208601526117aa8282611741565b915050604083015184820360408601526117c48282611741565b915050606083015184820360608601526117de8282611741565b915050608083015184820360808601526117f88282611741565b9150508091505092915050565b6000611811838361177a565b905092915050565b6000602082019050919050565b6000611831826116af565b61183b81856116ba565b93508360208202850161184d856116cb565b8060005b85811015611889578484038952815161186a8582611805565b945061187583611819565b925060208a01995050600181019050611851565b50829750879550505050505092915050565b600060208201905081810360008301526118b58184611826565b905092915050565b6000602082840312156118d3576118d261157a565b5b60006118e18482850161165a565b91505092915050565b6118f3816115a4565b82525050565b600060208201905061190e60008301846118ea565b92915050565b600082825260208201905092915050565b6000611930826116ea565b61193a8185611914565b935061194a818560208601611706565b61195381611730565b840191505092915050565b600060208201905081810360008301526119788184611925565b905092915050565b600080fd5b600080fd5b600080fd5b60008083601f8401126119a5576119a4611980565b5b8235905067ffffffffffffffff8111156119c2576119c1611985565b5b6020830191508360018202830111156119de576119dd61198a565b5b9250929050565b6000806000806000806000806080898b031215611a0557611a0461157a565b5b600089013567ffffffffffffffff811115611a2357611a2261157f565b5b611a2f8b828c0161198f565b9850985050602089013567ffffffffffffffff811115611a5257611a5161157f565b5b611a5e8b828c0161198f565b9650965050604089013567ffffffffffffffff811115611a8157611a8061157f565b5b611a8d8b828c0161198f565b9450945050606089013567ffffffffffffffff811115611ab057611aaf61157f565b5b611abc8b828c0161198f565b92509250509295985092959890939650565b60008115159050919050565b611ae381611ace565b82525050565b6000602082019050611afe6000830184611ada565b92915050565b611b0d81611ace565b82525050565b60006040830160008301518482036000860152611b30828261177a565b9150506020830151611b456020860182611b04565b508091505092915050565b60006020820190508181036000830152611b6a8184611b13565b905092915050565b7f4e487b7100000000000000000000000000000000000000000000000000000000600052601160045260246000fd5b6000611bac8261160f565b9150611bb78361160f565b9250828203905081811115611bcf57611bce611b72565b5b92915050565b7f4b61746120616c7265616479206f776e65640000000000000000000000000000600082015250565b6000611c0b601283611914565b9150611c1682611bd5565b602082019050919050565b60006020820190508181036000830152611c3a81611bfe565b9050919050565b7f4e6f7420656e6f75676820637265646974730000000000000000000000000000600082015250565b6000611c77601283611914565b9150611c8282611c41565b602082019050919050565b60006020820190508181036000830152611ca681611c6a565b9050919050565b7f4e487b7100000000000000000000000000000000000000000000000000000000600052602260045260246000fd5b60006002820490506001821680611cf457607f821691505b602082108103611d0757611d06611cad565b5b50919050565b7f4e487b7100000000000000000000000000000000000000000000000000000000600052604160045260246000fd5b60008190508160005260206000209050919050565b60006020601f8301049050919050565b600082821b905092915050565b600060088302611d9e7fffffffffffffffffffffffffffffffffffffffffffffffffffffffffffffffff82611d61565b611da88683611d61565b95508019841693508086168417925050509392505050565b6000819050919050565b6000611de5611de0611ddb8461160f565b611dc0565b61160f565b9050919050565b6000819050919050565b611dff83611dca565b611e13611e0b82611dec565b848454611d6e565b825550505050565b600090565b611e28611e1b565b611e33818484611df6565b505050565b5b81811015611e5757611e4c600082611e20565b600181019050611e39565b5050565b601f821115611e9c57611e6d81611d3c565b611e7684611d51565b81016020851015611e85578190505b611e99611e9185611d51565b830182611e38565b50505b505050565b600082821c905092915050565b6000611ebf60001984600802611ea1565b1980831691505092915050565b6000611ed88383611eae565b9150826002028217905092915050565b611ef1826116ea565b67ffffffffffffffff811115611f0a57611f09611d0d565b5b611f148254611cdc565b611f1f828285611e5b565b600060209050601f831160018114611f525760008415611f40578287015190505b611f4a8582611ecc565b865550611fb2565b601f198416611f6086611d3c565b60005b82811015611f8857848901518255600182019150602085019450602081019050611f63565b86831015611fa55784890151611fa1601f891682611eae565b8355505b6001600288020188555050505b505050505050565b6000611fc58261160f565b91507fffffffffffffffffffffffffffffffffffffffffffffffffffffffffffffffff8203611ff757611ff6611b72565b5b600182019050919050565b7f4e487b7100000000000000000000000000000000000000000000000000000000600052603260045260246000fd5b7f4e6f7420666f756e640000000000000000000000000000000000000000000000600082015250565b6000612067600983611914565b915061207282612031565b602082019050919050565b600060208201905081810360008301526120968161205a565b9050919050565b7f6b61746120616c7265616479206f776e65640000000000000000000000000000600082015250565b60006120d3601283611914565b91506120de8261209d565b602082019050919050565b60006020820190508181036000830152612102816120c6565b9050919050565b7f6d696e696d756e20747279206973203230000000000000000000000000000000600082015250565b600061213f601183611914565b915061214a82612109565b602082019050919050565b6000602082019050818103600083015261216e81612132565b9050919050565b60006121808261160f565b915061218b8361160f565b92508282026121998161160f565b915082820484148315176121b0576121af611b72565b5b5092915050565b7f796f75206e65656420746f207061792074686520726967687420616d6f756e74600082015250565b60006121ed602083611914565b91506121f8826121b7565b602082019050919050565b6000602082019050818103600083015261221c816121e0565b9050919050565b600061222e8261160f565b91506122398361160f565b925082820190508082111561225157612250611b72565b5b92915050565b600060608201905081810360008301526122718186611925565b905061228060208301856118ea565b61228d6040830184611619565b94935050505056fea2646970667358221220d24edef9c22f7f810d150c7655ebe68b542bd35b5b2e732cf5912c9c7d4079d164736f6c63430008110033",
  "linkReferences": {},
  "deployedLinkReferences": {}
}