{
  "_format": "hh-sol-artifact-1",
  "contractName": "KataCoins",
  "sourceName": "contracts/KataCoins.sol",
  "abi": [
    {
      "inputs": [],
      "stateMutability": "nonpayable",
      "type": "constructor"
    },
    {
      "anonymous": false,
      "inputs": [
        {
          "indexed": true,
          "internalType": "address",
          "name": "owner",
          "type": "address"
        },
        {
          "indexed": true,
          "internalType": "address",
          "name": "approved",
          "type": "address"
        },
        {
          "indexed": true,
          "internalType": "uint256",
          "name": "tokenId",
          "type": "uint256"
        }
      ],
      "name": "Approval",
      "type": "event"
    },
    {
      "anonymous": false,
      "inputs": [
        {
          "indexed": true,
          "internalType": "address",
          "name": "owner",
          "type": "address"
        },
        {
          "indexed": true,
          "internalType": "address",
          "name": "operator",
          "type": "address"
        },
        {
          "indexed": false,
          "internalType": "bool",
          "name": "approved",
          "type": "bool"
        }
      ],
      "name": "ApprovalForAll",
      "type": "event"
    },
    {
      "anonymous": false,
      "inputs": [
        {
          "indexed": true,
          "internalType": "address",
          "name": "previousOwner",
          "type": "address"
        },
        {
          "indexed": true,
          "internalType": "address",
          "name": "newOwner",
          "type": "address"
        }
      ],
      "name": "OwnershipTransferred",
      "type": "event"
    },
    {
      "anonymous": false,
      "inputs": [
        {
          "indexed": true,
          "internalType": "address",
          "name": "from",
          "type": "address"
        },
        {
          "indexed": true,
          "internalType": "address",
          "name": "to",
          "type": "address"
        },
        {
          "indexed": true,
          "internalType": "uint256",
          "name": "tokenId",
          "type": "uint256"
        }
      ],
      "name": "Transfer",
      "type": "event"
    },
    {
      "inputs": [
        {
          "internalType": "address",
          "name": "to",
          "type": "address"
        },
        {
          "internalType": "uint256",
          "name": "tokenId",
          "type": "uint256"
        }
      ],
      "name": "approve",
      "outputs": [],
      "stateMutability": "nonpayable",
      "type": "function"
    },
    {
      "inputs": [
        {
          "internalType": "address",
          "name": "owner",
          "type": "address"
        }
      ],
      "name": "balanceOf",
      "outputs": [
        {
          "internalType": "uint256",
          "name": "",
          "type": "uint256"
        }
      ],
      "stateMutability": "view",
      "type": "function"
    },
    {
      "inputs": [
        {
          "internalType": "uint256",
          "name": "newFee",
          "type": "uint256"
        }
      ],
      "name": "changeLevelUpFee",
      "outputs": [],
      "stateMutability": "nonpayable",
      "type": "function"
    },
    {
      "inputs": [
        {
          "internalType": "string",
          "name": "name",
          "type": "string"
        },
        {
          "internalType": "string",
          "name": "statement",
          "type": "string"
        },
        {
          "internalType": "string",
          "name": "functionDeclaration",
          "type": "string"
        },
        {
          "internalType": "string",
          "name": "test",
          "type": "string"
        }
      ],
      "name": "createKata",
      "outputs": [
        {
          "internalType": "uint256",
          "name": "",
          "type": "uint256"
        }
      ],
      "stateMutability": "nonpayable",
      "type": "function"
    },
    {
      "inputs": [
        {
          "internalType": "address",
          "name": "user",
          "type": "address"
        },
        {
          "internalType": "uint256",
          "name": "kataId",
          "type": "uint256"
        }
      ],
      "name": "executeKata",
      "outputs": [],
      "stateMutability": "nonpayable",
      "type": "function"
    },
    {
      "inputs": [],
      "name": "getAllKata",
      "outputs": [
        {
          "components": [
            {
              "components": [
                {
                  "internalType": "uint256",
                  "name": "id",
                  "type": "uint256"
                },
                {
                  "internalType": "string",
                  "name": "name",
                  "type": "string"
                },
                {
                  "internalType": "string",
                  "name": "statement",
                  "type": "string"
                },
                {
                  "internalType": "string",
                  "name": "functionDeclaration",
                  "type": "string"
                },
                {
                  "internalType": "string",
                  "name": "test",
                  "type": "string"
                }
              ],
              "internalType": "struct KataCoins.Kata",
              "name": "kata",
              "type": "tuple"
            },
            {
              "internalType": "bool",
              "name": "isOwned",
              "type": "bool"
            }
          ],
          "internalType": "struct KataCoins.Response[]",
          "name": "",
          "type": "tuple[]"
        }
      ],
      "stateMutability": "view",
      "type": "function"
    },
    {
      "inputs": [
        {
          "internalType": "uint256",
          "name": "tokenId",
          "type": "uint256"
        }
      ],
      "name": "getApproved",
      "outputs": [
        {
          "internalType": "address",
          "name": "",
          "type": "address"
        }
      ],
      "stateMutability": "view",
      "type": "function"
    },
    {
      "inputs": [],
      "name": "getCredit",
      "outputs": [
        {
          "internalType": "uint256",
          "name": "",
          "type": "uint256"
        }
      ],
      "stateMutability": "view",
      "type": "function"
    },
    {
      "inputs": [],
      "name": "getExecFee",
      "outputs": [
        {
          "internalType": "uint256",
          "name": "",
          "type": "uint256"
        }
      ],
      "stateMutability": "view",
      "type": "function"
    },
    {
      "inputs": [
        {
          "internalType": "uint256",
          "name": "kataId",
          "type": "uint256"
        }
      ],
      "name": "getKata",
      "outputs": [
        {
          "components": [
            {
              "components": [
                {
                  "internalType": "uint256",
                  "name": "id",
                  "type": "uint256"
                },
                {
                  "internalType": "string",
                  "name": "name",
                  "type": "string"
                },
                {
                  "internalType": "string",
                  "name": "statement",
                  "type": "string"
                },
                {
                  "internalType": "string",
                  "name": "functionDeclaration",
                  "type": "string"
                },
                {
                  "internalType": "string",
                  "name": "test",
                  "type": "string"
                }
              ],
              "internalType": "struct KataCoins.Kata",
              "name": "kata",
              "type": "tuple"
            },
            {
              "internalType": "bool",
              "name": "isOwned",
              "type": "bool"
            }
          ],
          "internalType": "struct KataCoins.Response",
          "name": "",
          "type": "tuple"
        }
      ],
      "stateMutability": "view",
      "type": "function"
    },
    {
      "inputs": [
        {
          "internalType": "address",
          "name": "user",
          "type": "address"
        },
        {
          "internalType": "uint256",
          "name": "kataID",
          "type": "uint256"
        }
      ],
      "name": "hasSolvedKata",
      "outputs": [
        {
          "internalType": "bool",
          "name": "",
          "type": "bool"
        }
      ],
      "stateMutability": "view",
      "type": "function"
    },
    {
      "inputs": [
        {
          "internalType": "address",
          "name": "owner",
          "type": "address"
        },
        {
          "internalType": "address",
          "name": "operator",
          "type": "address"
        }
      ],
      "name": "isApprovedForAll",
      "outputs": [
        {
          "internalType": "bool",
          "name": "",
          "type": "bool"
        }
      ],
      "stateMutability": "view",
      "type": "function"
    },
    {
      "inputs": [
        {
          "internalType": "uint256",
          "name": "tokenId",
          "type": "uint256"
        }
      ],
      "name": "mintKata",
      "outputs": [],
      "stateMutability": "nonpayable",
      "type": "function"
    },
    {
      "inputs": [],
      "name": "name",
      "outputs": [
        {
          "internalType": "string",
          "name": "",
          "type": "string"
        }
      ],
      "stateMutability": "view",
      "type": "function"
    },
    {
      "inputs": [],
      "name": "owner",
      "outputs": [
        {
          "internalType": "address",
          "name": "",
          "type": "address"
        }
      ],
      "stateMutability": "view",
      "type": "function"
    },
    {
      "inputs": [
        {
          "internalType": "uint256",
          "name": "tokenId",
          "type": "uint256"
        }
      ],
      "name": "ownerOf",
      "outputs": [
        {
          "internalType": "address",
          "name": "",
          "type": "address"
        }
      ],
      "stateMutability": "view",
      "type": "function"
    },
    {
      "inputs": [
        {
          "internalType": "uint256",
          "name": "nbTry",
          "type": "uint256"
        }
      ],
      "name": "payCredit",
      "outputs": [],
      "stateMutability": "payable",
      "type": "function"
    },
    {
      "inputs": [],
      "name": "renounceOwnership",
      "outputs": [],
      "stateMutability": "nonpayable",
      "type": "function"
    },
    {
      "inputs": [
        {
          "internalType": "address",
          "name": "from",
          "type": "address"
        },
        {
          "internalType": "address",
          "name": "to",
          "type": "address"
        },
        {
          "internalType": "uint256",
          "name": "tokenId",
          "type": "uint256"
        }
      ],
      "name": "safeTransferFrom",
      "outputs": [],
      "stateMutability": "nonpayable",
      "type": "function"
    },
    {
      "inputs": [
        {
          "internalType": "address",
          "name": "from",
          "type": "address"
        },
        {
          "internalType": "address",
          "name": "to",
          "type": "address"
        },
        {
          "internalType": "uint256",
          "name": "tokenId",
          "type": "uint256"
        },
        {
          "internalType": "bytes",
          "name": "data",
          "type": "bytes"
        }
      ],
      "name": "safeTransferFrom",
      "outputs": [],
      "stateMutability": "nonpayable",
      "type": "function"
    },
    {
      "inputs": [
        {
          "internalType": "address",
          "name": "operator",
          "type": "address"
        },
        {
          "internalType": "bool",
          "name": "approved",
          "type": "bool"
        }
      ],
      "name": "setApprovalForAll",
      "outputs": [],
      "stateMutability": "nonpayable",
      "type": "function"
    },
    {
      "inputs": [
        {
          "internalType": "address",
          "name": "user",
          "type": "address"
        },
        {
          "internalType": "uint256",
          "name": "kataID",
          "type": "uint256"
        }
      ],
      "name": "setHasSolvedKata",
      "outputs": [],
      "stateMutability": "nonpayable",
      "type": "function"
    },
    {
      "inputs": [
        {
          "internalType": "bytes4",
          "name": "interfaceId",
          "type": "bytes4"
        }
      ],
      "name": "supportsInterface",
      "outputs": [
        {
          "internalType": "bool",
          "name": "",
          "type": "bool"
        }
      ],
      "stateMutability": "view",
      "type": "function"
    },
    {
      "inputs": [],
      "name": "symbol",
      "outputs": [
        {
          "internalType": "string",
          "name": "",
          "type": "string"
        }
      ],
      "stateMutability": "view",
      "type": "function"
    },
    {
      "inputs": [
        {
          "internalType": "uint256",
          "name": "tokenId",
          "type": "uint256"
        }
      ],
      "name": "tokenURI",
      "outputs": [
        {
          "internalType": "string",
          "name": "",
          "type": "string"
        }
      ],
      "stateMutability": "view",
      "type": "function"
    },
    {
      "inputs": [
        {
          "internalType": "address",
          "name": "from",
          "type": "address"
        },
        {
          "internalType": "address",
          "name": "to",
          "type": "address"
        },
        {
          "internalType": "uint256",
          "name": "tokenId",
          "type": "uint256"
        }
      ],
      "name": "transferFrom",
      "outputs": [],
      "stateMutability": "nonpayable",
      "type": "function"
    },
    {
      "inputs": [
        {
          "internalType": "address",
          "name": "newOwner",
          "type": "address"
        }
      ],
      "name": "transferOwnership",
      "outputs": [],
      "stateMutability": "nonpayable",
      "type": "function"
    }
  ],
  "bytecode": "0x6080604052600060075566038d7ea4c6800060085560146009553480156200002657600080fd5b506040518060400160405280600981526020017f4b617461436f696e7300000000000000000000000000000000000000000000008152506040518060400160405280600381526020017f4b54430000000000000000000000000000000000000000000000000000000000815250620000b3620000a7620000df60201b60201c565b620000e760201b60201c565b8160019081620000c4919062000425565b508060029081620000d6919062000425565b5050506200050c565b600033905090565b60008060009054906101000a900473ffffffffffffffffffffffffffffffffffffffff169050816000806101000a81548173ffffffffffffffffffffffffffffffffffffffff021916908373ffffffffffffffffffffffffffffffffffffffff1602179055508173ffffffffffffffffffffffffffffffffffffffff168173ffffffffffffffffffffffffffffffffffffffff167f8be0079c531659141344cd1fd0a4f28419497f9722a3daafe3b4186f6b6457e060405160405180910390a35050565b600081519050919050565b7f4e487b7100000000000000000000000000000000000000000000000000000000600052604160045260246000fd5b7f4e487b7100000000000000000000000000000000000000000000000000000000600052602260045260246000fd5b600060028204905060018216806200022d57607f821691505b602082108103620002435762000242620001e5565b5b50919050565b60008190508160005260206000209050919050565b60006020601f8301049050919050565b600082821b905092915050565b600060088302620002ad7fffffffffffffffffffffffffffffffffffffffffffffffffffffffffffffffff826200026e565b620002b986836200026e565b95508019841693508086168417925050509392505050565b6000819050919050565b6000819050919050565b60006200030662000300620002fa84620002d1565b620002db565b620002d1565b9050919050565b6000819050919050565b6200032283620002e5565b6200033a62000331826200030d565b8484546200027b565b825550505050565b600090565b6200035162000342565b6200035e81848462000317565b505050565b5b8181101562000386576200037a60008262000347565b60018101905062000364565b5050565b601f821115620003d5576200039f8162000249565b620003aa846200025e565b81016020851015620003ba578190505b620003d2620003c9856200025e565b83018262000363565b50505b505050565b600082821c905092915050565b6000620003fa60001984600802620003da565b1980831691505092915050565b6000620004158383620003e7565b9150826002028217905092915050565b6200043082620001ab565b67ffffffffffffffff8111156200044c576200044b620001b6565b5b62000458825462000214565b620004658282856200038a565b600060209050601f8311600181146200049d576000841562000488578287015190505b62000494858262000407565b86555062000504565b601f198416620004ad8662000249565b60005b82811015620004d757848901518255600182019150602085019450602081019050620004b0565b86831015620004f75784890151620004f3601f891682620003e7565b8355505b6001600288020188555050505b505050505050565b6145b2806200051c6000396000f3fe60806040526004361061019c5760003560e01c8063715018a6116100ec578063be9c3cec1161008a578063d62605d511610064578063d62605d5146105ea578063e2f805cd14610606578063e985e9c51461062f578063f2fde38b1461066c5761019c565b8063be9c3cec1461055b578063c87b56dd14610584578063d578f0ed146105c15761019c565b806394d18e66116100c657806394d18e66146104a157806395d89b41146104de578063a22cb46514610509578063b88d4fde146105325761019c565b8063715018a614610422578063858a3746146104395780638da5cb5b146104765761019c565b806342842e0e1161015957806359296e7b1161013357806359296e7b146103545780636352211e1461037f5780636992ba8d146103bc57806370a08231146103e55761019c565b806342842e0e146102d55780634d3ffd97146102fe578063555e0673146103295761019c565b806301ffc9a7146101a157806306fdde03146101de578063081812fc14610209578063095ea7b3146102465780631b52234c1461026f57806323b872dd146102ac575b600080fd5b3480156101ad57600080fd5b506101c860048036038101906101c39190612d78565b610695565b6040516101d59190612dc0565b60405180910390f35b3480156101ea57600080fd5b506101f3610777565b6040516102009190612e6b565b60405180910390f35b34801561021557600080fd5b50610230600480360381019061022b9190612ec3565b610809565b60405161023d9190612f31565b60405180910390f35b34801561025257600080fd5b5061026d60048036038101906102689190612f78565b61084f565b005b34801561027b57600080fd5b5061029660048036038101906102919190612f78565b610966565b6040516102a39190612dc0565b60405180910390f35b3480156102b857600080fd5b506102d360048036038101906102ce9190612fb8565b610a87565b005b3480156102e157600080fd5b506102fc60048036038101906102f79190612fb8565b610ae7565b005b34801561030a57600080fd5b50610313610b07565b604051610320919061301a565b60405180910390f35b34801561033557600080fd5b5061033e610b11565b60405161034b9190613227565b60405180910390f35b34801561036057600080fd5b50610369610e90565b604051610376919061301a565b60405180910390f35b34801561038b57600080fd5b506103a660048036038101906103a19190612ec3565b610ed7565b6040516103b39190612f31565b60405180910390f35b3480156103c857600080fd5b506103e360048036038101906103de9190612ec3565b610f5d565b005b3480156103f157600080fd5b5061040c60048036038101906104079190613249565b610fd2565b604051610419919061301a565b60405180910390f35b34801561042e57600080fd5b50610437611089565b005b34801561044557600080fd5b50610460600480360381019061045b91906132db565b61109d565b60405161046d919061301a565b60405180910390f35b34801561048257600080fd5b5061048b6112a4565b6040516104989190612f31565b60405180910390f35b3480156104ad57600080fd5b506104c860048036038101906104c39190612ec3565b6112cd565b6040516104d59190613401565b60405180910390f35b3480156104ea57600080fd5b506104f361163a565b6040516105009190612e6b565b60405180910390f35b34801561051557600080fd5b50610530600480360381019061052b919061344f565b6116cc565b005b34801561053e57600080fd5b50610559600480360381019061055491906135bf565b6116e2565b005b34801561056757600080fd5b50610582600480360381019061057d9190612f78565b611744565b005b34801561059057600080fd5b506105ab60048036038101906105a69190612ec3565b61183b565b6040516105b89190612e6b565b60405180910390f35b3480156105cd57600080fd5b506105e860048036038101906105e39190612f78565b6118a3565b005b61060460048036038101906105ff9190612ec3565b611a37565b005b34801561061257600080fd5b5061062d60048036038101906106289190612ec3565b611b24565b005b34801561063b57600080fd5b5061065660048036038101906106519190613642565b611b36565b6040516106639190612dc0565b60405180910390f35b34801561067857600080fd5b50610693600480360381019061068e9190613249565b611bca565b005b60007f80ac58cd000000000000000000000000000000000000000000000000000000007bffffffffffffffffffffffffffffffffffffffffffffffffffffffff1916827bffffffffffffffffffffffffffffffffffffffffffffffffffffffff1916148061076057507f5b5e139f000000000000000000000000000000000000000000000000000000007bffffffffffffffffffffffffffffffffffffffffffffffffffffffff1916827bffffffffffffffffffffffffffffffffffffffffffffffffffffffff1916145b80610770575061076f82611c4d565b5b9050919050565b606060018054610786906136b1565b80601f01602080910402602001604051908101604052809291908181526020018280546107b2906136b1565b80156107ff5780601f106107d4576101008083540402835291602001916107ff565b820191906000526020600020905b8154815290600101906020018083116107e257829003601f168201915b5050505050905090565b600061081482611cb7565b6005600083815260200190815260200160002060009054906101000a900473ffffffffffffffffffffffffffffffffffffffff169050919050565b600061085a82610ed7565b90508073ffffffffffffffffffffffffffffffffffffffff168373ffffffffffffffffffffffffffffffffffffffff16036108ca576040517f08c379a00000000000000000000000000000000000000000000000000000000081526004016108c190613754565b60405180910390fd5b8073ffffffffffffffffffffffffffffffffffffffff166108e9611d02565b73ffffffffffffffffffffffffffffffffffffffff161480610918575061091781610912611d02565b611b36565b5b610957576040517f08c379a000000000000000000000000000000000000000000000000000000000815260040161094e906137e6565b60405180910390fd5b6109618383611d0a565b505050565b600080600b60008481526020019081526020016000208054806020026020016040519081016040528092919081815260200182805480156109fc57602002820191906000526020600020905b8160009054906101000a900473ffffffffffffffffffffffffffffffffffffffff1673ffffffffffffffffffffffffffffffffffffffff16815260200190600101908083116109b2575b5050505050905060005b8151811015610a7a578473ffffffffffffffffffffffffffffffffffffffff16828281518110610a3957610a38613806565b5b602002602001015173ffffffffffffffffffffffffffffffffffffffff1603610a6757600192505050610a81565b8080610a7290613864565b915050610a06565b5060009150505b92915050565b610a98610a92611d02565b82611dc3565b610ad7576040517f08c379a0000000000000000000000000000000000000000000000000000000008152600401610ace9061391e565b60405180910390fd5b610ae2838383611e58565b505050565b610b02838383604051806020016040528060008152506116e2565b505050565b6000600854905090565b60606000600a8054905067ffffffffffffffff811115610b3457610b33613494565b5b604051908082528060200260200182016040528015610b6d57816020015b610b5a612c7d565b815260200190600190039081610b525790505b50905060005b600a80549050811015610e88576000600a8281548110610b9657610b95613806565b5b90600052602060002090600502016040518060a001604052908160008201548152602001600182018054610bc9906136b1565b80601f0160208091040260200160405190810160405280929190818152602001828054610bf5906136b1565b8015610c425780601f10610c1757610100808354040283529160200191610c42565b820191906000526020600020905b815481529060010190602001808311610c2557829003601f168201915b50505050508152602001600282018054610c5b906136b1565b80601f0160208091040260200160405190810160405280929190818152602001828054610c87906136b1565b8015610cd45780601f10610ca957610100808354040283529160200191610cd4565b820191906000526020600020905b815481529060010190602001808311610cb757829003601f168201915b50505050508152602001600382018054610ced906136b1565b80601f0160208091040260200160405190810160405280929190818152602001828054610d19906136b1565b8015610d665780601f10610d3b57610100808354040283529160200191610d66565b820191906000526020600020905b815481529060010190602001808311610d4957829003601f168201915b50505050508152602001600482018054610d7f906136b1565b80601f0160208091040260200160405190810160405280929190818152602001828054610dab906136b1565b8015610df85780601f10610dcd57610100808354040283529160200191610df8565b820191906000526020600020905b815481529060010190602001808311610ddb57829003601f168201915b50505050508152505090506040518060400160405280828152602001600073ffffffffffffffffffffffffffffffffffffffff16610e398460000151612151565b73ffffffffffffffffffffffffffffffffffffffff1614151515815250838381518110610e6957610e68613806565b5b6020026020010181905250508080610e8090613864565b915050610b73565b508091505090565b6000600c60003373ffffffffffffffffffffffffffffffffffffffff1673ffffffffffffffffffffffffffffffffffffffff16815260200190815260200160002054905090565b600080610ee383612151565b9050600073ffffffffffffffffffffffffffffffffffffffff168173ffffffffffffffffffffffffffffffffffffffff1603610f54576040517f08c379a0000000000000000000000000000000000000000000000000000000008152600401610f4b9061398a565b60405180910390fd5b80915050919050565b610f673382610966565b610fa6576040517f08c379a0000000000000000000000000000000000000000000000000000000008152600401610f9d90613a1c565b60405180910390fd5b600b60008281526020019081526020016000206000610fc59190612c9f565b610fcf338261218e565b50565b60008073ffffffffffffffffffffffffffffffffffffffff168273ffffffffffffffffffffffffffffffffffffffff1603611042576040517f08c379a000000000000000000000000000000000000000000000000000000000815260040161103990613aae565b60405180910390fd5b600460008373ffffffffffffffffffffffffffffffffffffffff1673ffffffffffffffffffffffffffffffffffffffff168152602001908152602001600020549050919050565b6110916121ac565b61109b600061222a565b565b60006110a76121ac565b600a6040518060a0016040528060075481526020018b8b8080601f016020809104026020016040519081016040528093929190818152602001838380828437600081840152601f19601f82011690508083019250505050505050815260200189898080601f016020809104026020016040519081016040528093929190818152602001838380828437600081840152601f19601f82011690508083019250505050505050815260200187878080601f016020809104026020016040519081016040528093929190818152602001838380828437600081840152601f19601f82011690508083019250505050505050815260200185858080601f016020809104026020016040519081016040528093929190818152602001838380828437600081840152601f19601f82011690508083019250505050505050815250908060018154018082558091505060019003906000526020600020906005020160009091909190915060008201518160000155602082015181600101908161122a9190613c7a565b5060408201518160020190816112409190613c7a565b5060608201518160030190816112569190613c7a565b50608082015181600401908161126c9190613c7a565b5050506007600081548092919061128290613864565b919050555060016007546112969190613d4c565b905098975050505050505050565b60008060009054906101000a900473ffffffffffffffffffffffffffffffffffffffff16905090565b6112d5612c7d565b60005b600a805490508110156115f95782600a82815481106112fa576112f9613806565b5b906000526020600020906005020160000154036115e6576040518060400160405280600a83815481106113305761132f613806565b5b90600052602060002090600502016040518060a001604052908160008201548152602001600182018054611363906136b1565b80601f016020809104026020016040519081016040528092919081815260200182805461138f906136b1565b80156113dc5780601f106113b1576101008083540402835291602001916113dc565b820191906000526020600020905b8154815290600101906020018083116113bf57829003601f168201915b505050505081526020016002820180546113f5906136b1565b80601f0160208091040260200160405190810160405280929190818152602001828054611421906136b1565b801561146e5780601f106114435761010080835404028352916020019161146e565b820191906000526020600020905b81548152906001019060200180831161145157829003601f168201915b50505050508152602001600382018054611487906136b1565b80601f01602080910402602001604051908101604052809291908181526020018280546114b3906136b1565b80156115005780601f106114d557610100808354040283529160200191611500565b820191906000526020600020905b8154815290600101906020018083116114e357829003601f168201915b50505050508152602001600482018054611519906136b1565b80601f0160208091040260200160405190810160405280929190818152602001828054611545906136b1565b80156115925780601f1061156757610100808354040283529160200191611592565b820191906000526020600020905b81548152906001019060200180831161157557829003601f168201915b5050505050815250508152602001600073ffffffffffffffffffffffffffffffffffffffff166115c186612151565b73ffffffffffffffffffffffffffffffffffffffff1614151515815250915050611635565b80806115f190613864565b9150506112d8565b506040517f08c379a000000000000000000000000000000000000000000000000000000000815260040161162c90613dcc565b60405180910390fd5b919050565b606060028054611649906136b1565b80601f0160208091040260200160405190810160405280929190818152602001828054611675906136b1565b80156116c25780601f10611697576101008083540402835291602001916116c2565b820191906000526020600020905b8154815290600101906020018083116116a557829003601f168201915b5050505050905090565b6116de6116d7611d02565b83836122ee565b5050565b6116f36116ed611d02565b83611dc3565b611732576040517f08c379a00000000000000000000000000000000000000000000000000000000081526004016117299061391e565b60405180910390fd5b61173e8484848461245a565b50505050565b61174c6121ac565b600073ffffffffffffffffffffffffffffffffffffffff1661176d82612151565b73ffffffffffffffffffffffffffffffffffffffff16146117c3576040517f08c379a00000000000000000000000000000000000000000000000000000000081526004016117ba90613e38565b60405180910390fd5b600b6000828152602001908152602001600020829080600181540180825580915050600190039060005260206000200160009091909190916101000a81548173ffffffffffffffffffffffffffffffffffffffff021916908373ffffffffffffffffffffffffffffffffffffffff1602179055505050565b606061184682611cb7565b60006118506124b6565b90506000815111611870576040518060200160405280600081525061189b565b8061187a846124cd565b60405160200161188b929190613e94565b6040516020818303038152906040525b915050919050565b6118ab6121ac565b600073ffffffffffffffffffffffffffffffffffffffff166118cc82612151565b73ffffffffffffffffffffffffffffffffffffffff1614611922576040517f08c379a000000000000000000000000000000000000000000000000000000000815260040161191990613e38565b60405180910390fd5b6000600c60008473ffffffffffffffffffffffffffffffffffffffff1673ffffffffffffffffffffffffffffffffffffffff16815260200190815260200160002054116119a4576040517f08c379a000000000000000000000000000000000000000000000000000000000815260040161199b90613f04565b60405180910390fd5b6001600c60008473ffffffffffffffffffffffffffffffffffffffff1673ffffffffffffffffffffffffffffffffffffffff168152602001908152602001600020546119f09190613d4c565b600c60008473ffffffffffffffffffffffffffffffffffffffff1673ffffffffffffffffffffffffffffffffffffffff168152602001908152602001600020819055505050565b600954811015611a7c576040517f08c379a0000000000000000000000000000000000000000000000000000000008152600401611a7390613f70565b60405180910390fd5b60085481611a8a9190613f90565b3414611acb576040517f08c379a0000000000000000000000000000000000000000000000000000000008152600401611ac29061401e565b60405180910390fd5b80600c60003373ffffffffffffffffffffffffffffffffffffffff1673ffffffffffffffffffffffffffffffffffffffff1681526020019081526020016000206000828254611b1a919061403e565b9250508190555050565b611b2c6121ac565b8060088190555050565b6000600660008473ffffffffffffffffffffffffffffffffffffffff1673ffffffffffffffffffffffffffffffffffffffff16815260200190815260200160002060008373ffffffffffffffffffffffffffffffffffffffff1673ffffffffffffffffffffffffffffffffffffffff16815260200190815260200160002060009054906101000a900460ff16905092915050565b611bd26121ac565b600073ffffffffffffffffffffffffffffffffffffffff168173ffffffffffffffffffffffffffffffffffffffff1603611c41576040517f08c379a0000000000000000000000000000000000000000000000000000000008152600401611c38906140e4565b60405180910390fd5b611c4a8161222a565b50565b60007f01ffc9a7000000000000000000000000000000000000000000000000000000007bffffffffffffffffffffffffffffffffffffffffffffffffffffffff1916827bffffffffffffffffffffffffffffffffffffffffffffffffffffffff1916149050919050565b611cc08161259b565b611cff576040517f08c379a0000000000000000000000000000000000000000000000000000000008152600401611cf69061398a565b60405180910390fd5b50565b600033905090565b816005600083815260200190815260200160002060006101000a81548173ffffffffffffffffffffffffffffffffffffffff021916908373ffffffffffffffffffffffffffffffffffffffff160217905550808273ffffffffffffffffffffffffffffffffffffffff16611d7d83610ed7565b73ffffffffffffffffffffffffffffffffffffffff167f8c5be1e5ebec7d5bd14f71427d1e84f3dd0314c0f7b2291e5b200ac8c7c3b92560405160405180910390a45050565b600080611dcf83610ed7565b90508073ffffffffffffffffffffffffffffffffffffffff168473ffffffffffffffffffffffffffffffffffffffff161480611e115750611e108185611b36565b5b80611e4f57508373ffffffffffffffffffffffffffffffffffffffff16611e3784610809565b73ffffffffffffffffffffffffffffffffffffffff16145b91505092915050565b8273ffffffffffffffffffffffffffffffffffffffff16611e7882610ed7565b73ffffffffffffffffffffffffffffffffffffffff1614611ece576040517f08c379a0000000000000000000000000000000000000000000000000000000008152600401611ec590614176565b60405180910390fd5b600073ffffffffffffffffffffffffffffffffffffffff168273ffffffffffffffffffffffffffffffffffffffff1603611f3d576040517f08c379a0000000000000000000000000000000000000000000000000000000008152600401611f3490614208565b60405180910390fd5b611f4a83838360016125dc565b8273ffffffffffffffffffffffffffffffffffffffff16611f6a82610ed7565b73ffffffffffffffffffffffffffffffffffffffff1614611fc0576040517f08c379a0000000000000000000000000000000000000000000000000000000008152600401611fb790614176565b60405180910390fd5b6005600082815260200190815260200160002060006101000a81549073ffffffffffffffffffffffffffffffffffffffff02191690556001600460008573ffffffffffffffffffffffffffffffffffffffff1673ffffffffffffffffffffffffffffffffffffffff168152602001908152602001600020600082825403925050819055506001600460008473ffffffffffffffffffffffffffffffffffffffff1673ffffffffffffffffffffffffffffffffffffffff16815260200190815260200160002060008282540192505081905550816003600083815260200190815260200160002060006101000a81548173ffffffffffffffffffffffffffffffffffffffff021916908373ffffffffffffffffffffffffffffffffffffffff160217905550808273ffffffffffffffffffffffffffffffffffffffff168473ffffffffffffffffffffffffffffffffffffffff167fddf252ad1be2c89b69c2b068fc378daa952ba7f163c4a11628f55a4df523b3ef60405160405180910390a461214c8383836001612702565b505050565b60006003600083815260200190815260200160002060009054906101000a900473ffffffffffffffffffffffffffffffffffffffff169050919050565b6121a8828260405180602001604052806000815250612708565b5050565b6121b4611d02565b73ffffffffffffffffffffffffffffffffffffffff166121d26112a4565b73ffffffffffffffffffffffffffffffffffffffff1614612228576040517f08c379a000000000000000000000000000000000000000000000000000000000815260040161221f90614274565b60405180910390fd5b565b60008060009054906101000a900473ffffffffffffffffffffffffffffffffffffffff169050816000806101000a81548173ffffffffffffffffffffffffffffffffffffffff021916908373ffffffffffffffffffffffffffffffffffffffff1602179055508173ffffffffffffffffffffffffffffffffffffffff168173ffffffffffffffffffffffffffffffffffffffff167f8be0079c531659141344cd1fd0a4f28419497f9722a3daafe3b4186f6b6457e060405160405180910390a35050565b8173ffffffffffffffffffffffffffffffffffffffff168373ffffffffffffffffffffffffffffffffffffffff160361235c576040517f08c379a0000000000000000000000000000000000000000000000000000000008152600401612353906142e0565b60405180910390fd5b80600660008573ffffffffffffffffffffffffffffffffffffffff1673ffffffffffffffffffffffffffffffffffffffff16815260200190815260200160002060008473ffffffffffffffffffffffffffffffffffffffff1673ffffffffffffffffffffffffffffffffffffffff16815260200190815260200160002060006101000a81548160ff0219169083151502179055508173ffffffffffffffffffffffffffffffffffffffff168373ffffffffffffffffffffffffffffffffffffffff167f17307eab39ab6107e8899845ad3d59bd9653f200f220920489ca2b5937696c318360405161244d9190612dc0565b60405180910390a3505050565b612465848484611e58565b61247184848484612763565b6124b0576040517f08c379a00000000000000000000000000000000000000000000000000000000081526004016124a790614372565b60405180910390fd5b50505050565b606060405180602001604052806000815250905090565b6060600060016124dc846128ea565b01905060008167ffffffffffffffff8111156124fb576124fa613494565b5b6040519080825280601f01601f19166020018201604052801561252d5781602001600182028036833780820191505090505b509050600082602001820190505b600115612590578080600190039150507f3031323334353637383961626364656600000000000000000000000000000000600a86061a8153600a858161258457612583614392565b5b0494506000850361253b575b819350505050919050565b60008073ffffffffffffffffffffffffffffffffffffffff166125bd83612151565b73ffffffffffffffffffffffffffffffffffffffff1614159050919050565b60018111156126fc57600073ffffffffffffffffffffffffffffffffffffffff168473ffffffffffffffffffffffffffffffffffffffff16146126705780600460008673ffffffffffffffffffffffffffffffffffffffff1673ffffffffffffffffffffffffffffffffffffffff16815260200190815260200160002060008282546126689190613d4c565b925050819055505b600073ffffffffffffffffffffffffffffffffffffffff168373ffffffffffffffffffffffffffffffffffffffff16146126fb5780600460008573ffffffffffffffffffffffffffffffffffffffff1673ffffffffffffffffffffffffffffffffffffffff16815260200190815260200160002060008282546126f3919061403e565b925050819055505b5b50505050565b50505050565b6127128383612a3d565b61271f6000848484612763565b61275e576040517f08c379a000000000000000000000000000000000000000000000000000000000815260040161275590614372565b60405180910390fd5b505050565b60006127848473ffffffffffffffffffffffffffffffffffffffff16612c5a565b156128dd578373ffffffffffffffffffffffffffffffffffffffff1663150b7a026127ad611d02565b8786866040518563ffffffff1660e01b81526004016127cf9493929190614416565b6020604051808303816000875af192505050801561280b57506040513d601f19601f820116820180604052508101906128089190614477565b60015b61288d573d806000811461283b576040519150601f19603f3d011682016040523d82523d6000602084013e612840565b606091505b506000815103612885576040517f08c379a000000000000000000000000000000000000000000000000000000000815260040161287c90614372565b60405180910390fd5b805181602001fd5b63150b7a0260e01b7bffffffffffffffffffffffffffffffffffffffffffffffffffffffff1916817bffffffffffffffffffffffffffffffffffffffffffffffffffffffff1916149150506128e2565b600190505b949350505050565b600080600090507a184f03e93ff9f4daa797ed6e38ed64bf6a1f0100000000000000008310612948577a184f03e93ff9f4daa797ed6e38ed64bf6a1f010000000000000000838161293e5761293d614392565b5b0492506040810190505b6d04ee2d6d415b85acef81000000008310612985576d04ee2d6d415b85acef8100000000838161297b5761297a614392565b5b0492506020810190505b662386f26fc1000083106129b457662386f26fc1000083816129aa576129a9614392565b5b0492506010810190505b6305f5e10083106129dd576305f5e10083816129d3576129d2614392565b5b0492506008810190505b6127108310612a025761271083816129f8576129f7614392565b5b0492506004810190505b60648310612a255760648381612a1b57612a1a614392565b5b0492506002810190505b600a8310612a34576001810190505b80915050919050565b600073ffffffffffffffffffffffffffffffffffffffff168273ffffffffffffffffffffffffffffffffffffffff1603612aac576040517f08c379a0000000000000000000000000000000000000000000000000000000008152600401612aa3906144f0565b60405180910390fd5b612ab58161259b565b15612af5576040517f08c379a0000000000000000000000000000000000000000000000000000000008152600401612aec9061455c565b60405180910390fd5b612b036000838360016125dc565b612b0c8161259b565b15612b4c576040517f08c379a0000000000000000000000000000000000000000000000000000000008152600401612b439061455c565b60405180910390fd5b6001600460008473ffffffffffffffffffffffffffffffffffffffff1673ffffffffffffffffffffffffffffffffffffffff16815260200190815260200160002060008282540192505081905550816003600083815260200190815260200160002060006101000a81548173ffffffffffffffffffffffffffffffffffffffff021916908373ffffffffffffffffffffffffffffffffffffffff160217905550808273ffffffffffffffffffffffffffffffffffffffff16600073ffffffffffffffffffffffffffffffffffffffff167fddf252ad1be2c89b69c2b068fc378daa952ba7f163c4a11628f55a4df523b3ef60405160405180910390a4612c56600083836001612702565b5050565b6000808273ffffffffffffffffffffffffffffffffffffffff163b119050919050565b6040518060400160405280612c90612cc0565b81526020016000151581525090565b5080546000825590600052602060002090810190612cbd9190612cef565b50565b6040518060a0016040528060008152602001606081526020016060815260200160608152602001606081525090565b5b80821115612d08576000816000905550600101612cf0565b5090565b6000604051905090565b600080fd5b600080fd5b60007fffffffff0000000000000000000000000000000000000000000000000000000082169050919050565b612d5581612d20565b8114612d6057600080fd5b50565b600081359050612d7281612d4c565b92915050565b600060208284031215612d8e57612d8d612d16565b5b6000612d9c84828501612d63565b91505092915050565b60008115159050919050565b612dba81612da5565b82525050565b6000602082019050612dd56000830184612db1565b92915050565b600081519050919050565b600082825260208201905092915050565b60005b83811015612e15578082015181840152602081019050612dfa565b60008484015250505050565b6000601f19601f8301169050919050565b6000612e3d82612ddb565b612e478185612de6565b9350612e57818560208601612df7565b612e6081612e21565b840191505092915050565b60006020820190508181036000830152612e858184612e32565b905092915050565b6000819050919050565b612ea081612e8d565b8114612eab57600080fd5b50565b600081359050612ebd81612e97565b92915050565b600060208284031215612ed957612ed8612d16565b5b6000612ee784828501612eae565b91505092915050565b600073ffffffffffffffffffffffffffffffffffffffff82169050919050565b6000612f1b82612ef0565b9050919050565b612f2b81612f10565b82525050565b6000602082019050612f466000830184612f22565b92915050565b612f5581612f10565b8114612f6057600080fd5b50565b600081359050612f7281612f4c565b92915050565b60008060408385031215612f8f57612f8e612d16565b5b6000612f9d85828601612f63565b9250506020612fae85828601612eae565b9150509250929050565b600080600060608486031215612fd157612fd0612d16565b5b6000612fdf86828701612f63565b9350506020612ff086828701612f63565b925050604061300186828701612eae565b9150509250925092565b61301481612e8d565b82525050565b600060208201905061302f600083018461300b565b92915050565b600081519050919050565b600082825260208201905092915050565b6000819050602082019050919050565b61306a81612e8d565b82525050565b600082825260208201905092915050565b600061308c82612ddb565b6130968185613070565b93506130a6818560208601612df7565b6130af81612e21565b840191505092915050565b600060a0830160008301516130d26000860182613061565b50602083015184820360208601526130ea8282613081565b915050604083015184820360408601526131048282613081565b9150506060830151848203606086015261311e8282613081565b915050608083015184820360808601526131388282613081565b9150508091505092915050565b61314e81612da5565b82525050565b6000604083016000830151848203600086015261317182826130ba565b91505060208301516131866020860182613145565b508091505092915050565b600061319d8383613154565b905092915050565b6000602082019050919050565b60006131bd82613035565b6131c78185613040565b9350836020820285016131d985613051565b8060005b8581101561321557848403895281516131f68582613191565b9450613201836131a5565b925060208a019950506001810190506131dd565b50829750879550505050505092915050565b6000602082019050818103600083015261324181846131b2565b905092915050565b60006020828403121561325f5761325e612d16565b5b600061326d84828501612f63565b91505092915050565b600080fd5b600080fd5b600080fd5b60008083601f84011261329b5761329a613276565b5b8235905067ffffffffffffffff8111156132b8576132b761327b565b5b6020830191508360018202830111156132d4576132d3613280565b5b9250929050565b6000806000806000806000806080898b0312156132fb576132fa612d16565b5b600089013567ffffffffffffffff81111561331957613318612d1b565b5b6133258b828c01613285565b9850985050602089013567ffffffffffffffff81111561334857613347612d1b565b5b6133548b828c01613285565b9650965050604089013567ffffffffffffffff81111561337757613376612d1b565b5b6133838b828c01613285565b9450945050606089013567ffffffffffffffff8111156133a6576133a5612d1b565b5b6133b28b828c01613285565b92509250509295985092959890939650565b600060408301600083015184820360008601526133e182826130ba565b91505060208301516133f66020860182613145565b508091505092915050565b6000602082019050818103600083015261341b81846133c4565b905092915050565b61342c81612da5565b811461343757600080fd5b50565b60008135905061344981613423565b92915050565b6000806040838503121561346657613465612d16565b5b600061347485828601612f63565b92505060206134858582860161343a565b9150509250929050565b600080fd5b7f4e487b7100000000000000000000000000000000000000000000000000000000600052604160045260246000fd5b6134cc82612e21565b810181811067ffffffffffffffff821117156134eb576134ea613494565b5b80604052505050565b60006134fe612d0c565b905061350a82826134c3565b919050565b600067ffffffffffffffff82111561352a57613529613494565b5b61353382612e21565b9050602081019050919050565b82818337600083830152505050565b600061356261355d8461350f565b6134f4565b90508281526020810184848401111561357e5761357d61348f565b5b613589848285613540565b509392505050565b600082601f8301126135a6576135a5613276565b5b81356135b684826020860161354f565b91505092915050565b600080600080608085870312156135d9576135d8612d16565b5b60006135e787828801612f63565b94505060206135f887828801612f63565b935050604061360987828801612eae565b925050606085013567ffffffffffffffff81111561362a57613629612d1b565b5b61363687828801613591565b91505092959194509250565b6000806040838503121561365957613658612d16565b5b600061366785828601612f63565b925050602061367885828601612f63565b9150509250929050565b7f4e487b7100000000000000000000000000000000000000000000000000000000600052602260045260246000fd5b600060028204905060018216806136c957607f821691505b6020821081036136dc576136db613682565b5b50919050565b7f4552433732313a20617070726f76616c20746f2063757272656e74206f776e6560008201527f7200000000000000000000000000000000000000000000000000000000000000602082015250565b600061373e602183612de6565b9150613749826136e2565b604082019050919050565b6000602082019050818103600083015261376d81613731565b9050919050565b7f4552433732313a20617070726f76652063616c6c6572206973206e6f7420746f60008201527f6b656e206f776e6572206f7220617070726f76656420666f7220616c6c000000602082015250565b60006137d0603d83612de6565b91506137db82613774565b604082019050919050565b600060208201905081810360008301526137ff816137c3565b9050919050565b7f4e487b7100000000000000000000000000000000000000000000000000000000600052603260045260246000fd5b7f4e487b7100000000000000000000000000000000000000000000000000000000600052601160045260246000fd5b600061386f82612e8d565b91507fffffffffffffffffffffffffffffffffffffffffffffffffffffffffffffffff82036138a1576138a0613835565b5b600182019050919050565b7f4552433732313a2063616c6c6572206973206e6f7420746f6b656e206f776e6560008201527f72206f7220617070726f76656400000000000000000000000000000000000000602082015250565b6000613908602d83612de6565b9150613913826138ac565b604082019050919050565b60006020820190508181036000830152613937816138fb565b9050919050565b7f4552433732313a20696e76616c696420746f6b656e2049440000000000000000600082015250565b6000613974601883612de6565b915061397f8261393e565b602082019050919050565b600060208201905081810360008301526139a381613967565b9050919050565b7f596f75206e65656420746f20736f6c766520746865206b617461206265666f7260008201527f6500000000000000000000000000000000000000000000000000000000000000602082015250565b6000613a06602183612de6565b9150613a11826139aa565b604082019050919050565b60006020820190508181036000830152613a35816139f9565b9050919050565b7f4552433732313a2061646472657373207a65726f206973206e6f74206120766160008201527f6c6964206f776e65720000000000000000000000000000000000000000000000602082015250565b6000613a98602983612de6565b9150613aa382613a3c565b604082019050919050565b60006020820190508181036000830152613ac781613a8b565b9050919050565b60008190508160005260206000209050919050565b60006020601f8301049050919050565b600082821b905092915050565b600060088302613b307fffffffffffffffffffffffffffffffffffffffffffffffffffffffffffffffff82613af3565b613b3a8683613af3565b95508019841693508086168417925050509392505050565b6000819050919050565b6000613b77613b72613b6d84612e8d565b613b52565b612e8d565b9050919050565b6000819050919050565b613b9183613b5c565b613ba5613b9d82613b7e565b848454613b00565b825550505050565b600090565b613bba613bad565b613bc5818484613b88565b505050565b5b81811015613be957613bde600082613bb2565b600181019050613bcb565b5050565b601f821115613c2e57613bff81613ace565b613c0884613ae3565b81016020851015613c17578190505b613c2b613c2385613ae3565b830182613bca565b50505b505050565b600082821c905092915050565b6000613c5160001984600802613c33565b1980831691505092915050565b6000613c6a8383613c40565b9150826002028217905092915050565b613c8382612ddb565b67ffffffffffffffff811115613c9c57613c9b613494565b5b613ca682546136b1565b613cb1828285613bed565b600060209050601f831160018114613ce45760008415613cd2578287015190505b613cdc8582613c5e565b865550613d44565b601f198416613cf286613ace565b60005b82811015613d1a57848901518255600182019150602085019450602081019050613cf5565b86831015613d375784890151613d33601f891682613c40565b8355505b6001600288020188555050505b505050505050565b6000613d5782612e8d565b9150613d6283612e8d565b9250828203905081811115613d7a57613d79613835565b5b92915050565b7f4e6f7420666f756e640000000000000000000000000000000000000000000000600082015250565b6000613db6600983612de6565b9150613dc182613d80565b602082019050919050565b60006020820190508181036000830152613de581613da9565b9050919050565b7f4b61746120616c7265616479206f776e65640000000000000000000000000000600082015250565b6000613e22601283612de6565b9150613e2d82613dec565b602082019050919050565b60006020820190508181036000830152613e5181613e15565b9050919050565b600081905092915050565b6000613e6e82612ddb565b613e788185613e58565b9350613e88818560208601612df7565b80840191505092915050565b6000613ea08285613e63565b9150613eac8284613e63565b91508190509392505050565b7f4e6f7420656e6f75676820637265646974730000000000000000000000000000600082015250565b6000613eee601283612de6565b9150613ef982613eb8565b602082019050919050565b60006020820190508181036000830152613f1d81613ee1565b9050919050565b7f6d696e696d756e20747279206973203230000000000000000000000000000000600082015250565b6000613f5a601183612de6565b9150613f6582613f24565b602082019050919050565b60006020820190508181036000830152613f8981613f4d565b9050919050565b6000613f9b82612e8d565b9150613fa683612e8d565b9250828202613fb481612e8d565b91508282048414831517613fcb57613fca613835565b5b5092915050565b7f796f75206e65656420746f207061792074686520726967687420616d6f756e74600082015250565b6000614008602083612de6565b915061401382613fd2565b602082019050919050565b6000602082019050818103600083015261403781613ffb565b9050919050565b600061404982612e8d565b915061405483612e8d565b925082820190508082111561406c5761406b613835565b5b92915050565b7f4f776e61626c653a206e6577206f776e657220697320746865207a65726f206160008201527f6464726573730000000000000000000000000000000000000000000000000000602082015250565b60006140ce602683612de6565b91506140d982614072565b604082019050919050565b600060208201905081810360008301526140fd816140c1565b9050919050565b7f4552433732313a207472616e736665722066726f6d20696e636f72726563742060008201527f6f776e6572000000000000000000000000000000000000000000000000000000602082015250565b6000614160602583612de6565b915061416b82614104565b604082019050919050565b6000602082019050818103600083015261418f81614153565b9050919050565b7f4552433732313a207472616e7366657220746f20746865207a65726f2061646460008201527f7265737300000000000000000000000000000000000000000000000000000000602082015250565b60006141f2602483612de6565b91506141fd82614196565b604082019050919050565b60006020820190508181036000830152614221816141e5565b9050919050565b7f4f776e61626c653a2063616c6c6572206973206e6f7420746865206f776e6572600082015250565b600061425e602083612de6565b915061426982614228565b602082019050919050565b6000602082019050818103600083015261428d81614251565b9050919050565b7f4552433732313a20617070726f766520746f2063616c6c657200000000000000600082015250565b60006142ca601983612de6565b91506142d582614294565b602082019050919050565b600060208201905081810360008301526142f9816142bd565b9050919050565b7f4552433732313a207472616e7366657220746f206e6f6e20455243373231526560008201527f63656976657220696d706c656d656e7465720000000000000000000000000000602082015250565b600061435c603283612de6565b915061436782614300565b604082019050919050565b6000602082019050818103600083015261438b8161434f565b9050919050565b7f4e487b7100000000000000000000000000000000000000000000000000000000600052601260045260246000fd5b600081519050919050565b600082825260208201905092915050565b60006143e8826143c1565b6143f281856143cc565b9350614402818560208601612df7565b61440b81612e21565b840191505092915050565b600060808201905061442b6000830187612f22565b6144386020830186612f22565b614445604083018561300b565b818103606083015261445781846143dd565b905095945050505050565b60008151905061447181612d4c565b92915050565b60006020828403121561448d5761448c612d16565b5b600061449b84828501614462565b91505092915050565b7f4552433732313a206d696e7420746f20746865207a65726f2061646472657373600082015250565b60006144da602083612de6565b91506144e5826144a4565b602082019050919050565b60006020820190508181036000830152614509816144cd565b9050919050565b7f4552433732313a20746f6b656e20616c7265616479206d696e74656400000000600082015250565b6000614546601c83612de6565b915061455182614510565b602082019050919050565b6000602082019050818103600083015261457581614539565b905091905056fea264697066735822122071b779936a9ade8b5ccda0ca7b5b955ff894231a1159775ab98f176edec07bc064736f6c63430008110033",
  "linkReferences": {},
  "deployedLinkReferences": {}
}