{
  "_format": "hh-sol-artifact-1",
  "contractName": "KataCoins",
  "sourceName": "contracts/KataCoins.sol",
  "abi": [
    {
      "anonymous": false,
      "inputs": [
        {
          "indexed": true,
          "internalType": "address",
          "name": "_owner",
          "type": "address"
        },
        {
          "indexed": true,
          "internalType": "address",
          "name": "_approved",
          "type": "address"
        },
        {
          "indexed": false,
          "internalType": "uint256",
          "name": "_tokenId",
          "type": "uint256"
        }
      ],
      "name": "Approval",
      "type": "event"
    },
    {
      "anonymous": false,
      "inputs": [
        {
          "indexed": true,
          "internalType": "address",
          "name": "previousOwner",
          "type": "address"
        },
        {
          "indexed": true,
          "internalType": "address",
          "name": "newOwner",
          "type": "address"
        }
      ],
      "name": "OwnershipTransferred",
      "type": "event"
    },
    {
      "anonymous": false,
      "inputs": [
        {
          "indexed": true,
          "internalType": "address",
          "name": "_from",
          "type": "address"
        },
        {
          "indexed": true,
          "internalType": "address",
          "name": "_to",
          "type": "address"
        },
        {
          "indexed": false,
          "internalType": "uint256",
          "name": "_tokenId",
          "type": "uint256"
        }
      ],
      "name": "Transfer",
      "type": "event"
    },
    {
      "inputs": [
        {
          "internalType": "address",
          "name": "user",
          "type": "address"
        }
      ],
      "name": "canExecuteKata",
      "outputs": [
        {
          "internalType": "bool",
          "name": "",
          "type": "bool"
        }
      ],
      "stateMutability": "view",
      "type": "function"
    },
    {
      "inputs": [
        {
          "internalType": "uint256",
          "name": "newFee",
          "type": "uint256"
        }
      ],
      "name": "changeLevelUpFee",
      "outputs": [],
      "stateMutability": "nonpayable",
      "type": "function"
    },
    {
      "inputs": [],
      "name": "contractName",
      "outputs": [
        {
          "internalType": "string",
          "name": "",
          "type": "string"
        }
      ],
      "stateMutability": "view",
      "type": "function"
    },
    {
      "inputs": [
        {
          "internalType": "string",
          "name": "name",
          "type": "string"
        },
        {
          "internalType": "string",
          "name": "statement",
          "type": "string"
        },
        {
          "internalType": "string",
          "name": "functionDeclaration",
          "type": "string"
        },
        {
          "internalType": "string",
          "name": "test",
          "type": "string"
        }
      ],
      "name": "createKata",
      "outputs": [
        {
          "internalType": "uint256",
          "name": "",
          "type": "uint256"
        }
      ],
      "stateMutability": "nonpayable",
      "type": "function"
    },
    {
      "inputs": [],
      "name": "getAllKata",
      "outputs": [
        {
          "components": [
            {
              "internalType": "uint256",
              "name": "id",
              "type": "uint256"
            },
            {
              "internalType": "string",
              "name": "name",
              "type": "string"
            },
            {
              "internalType": "string",
              "name": "statement",
              "type": "string"
            },
            {
              "internalType": "string",
              "name": "functionDeclaration",
              "type": "string"
            },
            {
              "internalType": "string",
              "name": "test",
              "type": "string"
            }
          ],
          "internalType": "struct KataCoins.Kata[]",
          "name": "",
          "type": "tuple[]"
        }
      ],
      "stateMutability": "view",
      "type": "function"
    },
    {
      "inputs": [],
      "name": "getCredit",
      "outputs": [
        {
          "internalType": "uint256",
          "name": "",
          "type": "uint256"
        }
      ],
      "stateMutability": "view",
      "type": "function"
    },
    {
      "inputs": [
        {
          "internalType": "uint256",
          "name": "kataId",
          "type": "uint256"
        }
      ],
      "name": "getKata",
      "outputs": [
        {
          "components": [
            {
              "components": [
                {
                  "internalType": "uint256",
                  "name": "id",
                  "type": "uint256"
                },
                {
                  "internalType": "string",
                  "name": "name",
                  "type": "string"
                },
                {
                  "internalType": "string",
                  "name": "statement",
                  "type": "string"
                },
                {
                  "internalType": "string",
                  "name": "functionDeclaration",
                  "type": "string"
                },
                {
                  "internalType": "string",
                  "name": "test",
                  "type": "string"
                }
              ],
              "internalType": "struct KataCoins.Kata",
              "name": "kata",
              "type": "tuple"
            },
            {
              "internalType": "bool",
              "name": "isOwned",
              "type": "bool"
            }
          ],
          "internalType": "struct KataCoins.Response",
          "name": "",
          "type": "tuple"
        }
      ],
      "stateMutability": "view",
      "type": "function"
    },
    {
      "inputs": [],
      "name": "isOwner",
      "outputs": [
        {
          "internalType": "bool",
          "name": "",
          "type": "bool"
        }
      ],
      "stateMutability": "view",
      "type": "function"
    },
    {
      "inputs": [],
      "name": "owner",
      "outputs": [
        {
          "internalType": "address",
          "name": "",
          "type": "address"
        }
      ],
      "stateMutability": "view",
      "type": "function"
    },
    {
      "inputs": [
        {
          "internalType": "uint256",
          "name": "_tokenId",
          "type": "uint256"
        }
      ],
      "name": "ownerOf",
      "outputs": [
        {
          "internalType": "address",
          "name": "_owner",
          "type": "address"
        }
      ],
      "stateMutability": "view",
      "type": "function"
    },
    {
      "inputs": [
        {
          "internalType": "uint256",
          "name": "nbTry",
          "type": "uint256"
        }
      ],
      "name": "payCredit",
      "outputs": [],
      "stateMutability": "payable",
      "type": "function"
    },
    {
      "inputs": [],
      "name": "renounceOwnership",
      "outputs": [],
      "stateMutability": "nonpayable",
      "type": "function"
    },
    {
      "inputs": [
        {
          "internalType": "address",
          "name": "to",
          "type": "address"
        },
        {
          "internalType": "uint256",
          "name": "tokenId",
          "type": "uint256"
        }
      ],
      "name": "transfer",
      "outputs": [],
      "stateMutability": "nonpayable",
      "type": "function"
    },
    {
      "inputs": [
        {
          "internalType": "address",
          "name": "newOwner",
          "type": "address"
        }
      ],
      "name": "transferOwnership",
      "outputs": [],
      "stateMutability": "nonpayable",
      "type": "function"
    },
    {
      "inputs": [
        {
          "internalType": "address",
          "name": "user",
          "type": "address"
        }
      ],
      "name": "tryKata",
      "outputs": [],
      "stateMutability": "nonpayable",
      "type": "function"
    }
  ],
  "bytecode": "0x60806040526040518060400160405280600981526020017f4b617461436f696e730000000000000000000000000000000000000000000000815250600190816200004a9190620003a9565b50600060025566038d7ea4c6800060035560146004553480156200006d57600080fd5b50336000806101000a81548173ffffffffffffffffffffffffffffffffffffffff021916908373ffffffffffffffffffffffffffffffffffffffff16021790555060008054906101000a900473ffffffffffffffffffffffffffffffffffffffff1673ffffffffffffffffffffffffffffffffffffffff16600073ffffffffffffffffffffffffffffffffffffffff167f8be0079c531659141344cd1fd0a4f28419497f9722a3daafe3b4186f6b6457e060405160405180910390a362000490565b600081519050919050565b7f4e487b7100000000000000000000000000000000000000000000000000000000600052604160045260246000fd5b7f4e487b7100000000000000000000000000000000000000000000000000000000600052602260045260246000fd5b60006002820490506001821680620001b157607f821691505b602082108103620001c757620001c662000169565b5b50919050565b60008190508160005260206000209050919050565b60006020601f8301049050919050565b600082821b905092915050565b600060088302620002317fffffffffffffffffffffffffffffffffffffffffffffffffffffffffffffffff82620001f2565b6200023d8683620001f2565b95508019841693508086168417925050509392505050565b6000819050919050565b6000819050919050565b60006200028a620002846200027e8462000255565b6200025f565b62000255565b9050919050565b6000819050919050565b620002a68362000269565b620002be620002b58262000291565b848454620001ff565b825550505050565b600090565b620002d5620002c6565b620002e28184846200029b565b505050565b5b818110156200030a57620002fe600082620002cb565b600181019050620002e8565b5050565b601f82111562000359576200032381620001cd565b6200032e84620001e2565b810160208510156200033e578190505b620003566200034d85620001e2565b830182620002e7565b50505b505050565b600082821c905092915050565b60006200037e600019846008026200035e565b1980831691505092915050565b60006200039983836200036b565b9150826002028217905092915050565b620003b4826200012f565b67ffffffffffffffff811115620003d057620003cf6200013a565b5b620003dc825462000198565b620003e98282856200030e565b600060209050601f8311600181146200042157600084156200040c578287015190505b6200041885826200038b565b86555062000488565b601f1984166200043186620001cd565b60005b828110156200045b5784890151825560018201915060208501945060208101905062000434565b868310156200047b578489015162000477601f8916826200036b565b8355505b6001600288020188555050505b505050505050565b6120eb80620004a06000396000f3fe6080604052600436106100e85760003560e01c80638da5cb5b1161008a578063d62605d511610059578063d62605d5146102e4578063e2f805cd14610300578063f2756ea714610329578063f2fde38b14610366576100e8565b80638da5cb5b146102285780638f32d59b1461025357806394d18e661461027e578063a9059cbb146102bb576100e8565b80636352211e116100c65780636352211e1461016c578063715018a6146101a957806375d0c0dc146101c0578063858a3746146101eb576100e8565b80632bea65bf146100ed578063555e06731461011657806359296e7b14610141575b600080fd5b3480156100f957600080fd5b50610114600480360381019061010f91906114da565b61038f565b005b34801561012257600080fd5b5061012b6103fa565b60405161013891906116fd565b60405180910390f35b34801561014d57600080fd5b506101566106ab565b604051610163919061172e565b60405180910390f35b34801561017857600080fd5b50610193600480360381019061018e9190611775565b610771565b6040516101a091906117b1565b60405180910390f35b3480156101b557600080fd5b506101be6107ae565b005b3480156101cc57600080fd5b506101d561087d565b6040516101e29190611816565b60405180910390f35b3480156101f757600080fd5b50610212600480360381019061020d919061189d565b61090b565b60405161021f919061172e565b60405180910390f35b34801561023457600080fd5b5061023d610b1b565b60405161024a91906117b1565b60405180910390f35b34801561025f57600080fd5b50610268610b44565b60405161027591906119a1565b60405180910390f35b34801561028a57600080fd5b506102a560048036038101906102a09190611775565b610b9b565b6040516102b29190611a08565b60405180910390f35b3480156102c757600080fd5b506102e260048036038101906102dd9190611a2a565b610f33565b005b6102fe60048036038101906102f99190611775565b6110a1565b005b34801561030c57600080fd5b5061032760048036038101906103229190611775565b6111ce565b005b34801561033557600080fd5b50610350600480360381019061034b91906114da565b6111e9565b60405161035d91906119a1565b60405180910390f35b34801561037257600080fd5b5061038d600480360381019061038891906114da565b611246565b005b610397610b44565b6103a057600080fd5b6001600860008373ffffffffffffffffffffffffffffffffffffffff1673ffffffffffffffffffffffffffffffffffffffff16815260200190815260200160002060008282546103f09190611a99565b9250508190555050565b60606005805480602002602001604051908101604052809291908181526020016000905b828210156106a257838290600052602060002090600502016040518060a00160405290816000820154815260200160018201805461045b90611afc565b80601f016020809104026020016040519081016040528092919081815260200182805461048790611afc565b80156104d45780601f106104a9576101008083540402835291602001916104d4565b820191906000526020600020905b8154815290600101906020018083116104b757829003601f168201915b505050505081526020016002820180546104ed90611afc565b80601f016020809104026020016040519081016040528092919081815260200182805461051990611afc565b80156105665780601f1061053b57610100808354040283529160200191610566565b820191906000526020600020905b81548152906001019060200180831161054957829003601f168201915b5050505050815260200160038201805461057f90611afc565b80601f01602080910402602001604051908101604052809291908181526020018280546105ab90611afc565b80156105f85780601f106105cd576101008083540402835291602001916105f8565b820191906000526020600020905b8154815290600101906020018083116105db57829003601f168201915b5050505050815260200160048201805461061190611afc565b80601f016020809104026020016040519081016040528092919081815260200182805461063d90611afc565b801561068a5780601f1061065f5761010080835404028352916020019161068a565b820191906000526020600020905b81548152906001019060200180831161066d57829003601f168201915b5050505050815250508152602001906001019061041e565b50505050905090565b600061072c6040518060400160405280600981526020017f706179437265646974000000000000000000000000000000000000000000000081525033600860003373ffffffffffffffffffffffffffffffffffffffff1673ffffffffffffffffffffffffffffffffffffffff16815260200190815260200160002054611263565b600860003373ffffffffffffffffffffffffffffffffffffffff1673ffffffffffffffffffffffffffffffffffffffff16815260200190815260200160002054905090565b60006006600083815260200190815260200160002060009054906101000a900473ffffffffffffffffffffffffffffffffffffffff169050919050565b6107b6610b44565b6107bf57600080fd5b600073ffffffffffffffffffffffffffffffffffffffff1660008054906101000a900473ffffffffffffffffffffffffffffffffffffffff1673ffffffffffffffffffffffffffffffffffffffff167f8be0079c531659141344cd1fd0a4f28419497f9722a3daafe3b4186f6b6457e060405160405180910390a360008060006101000a81548173ffffffffffffffffffffffffffffffffffffffff021916908373ffffffffffffffffffffffffffffffffffffffff160217905550565b6001805461088a90611afc565b80601f01602080910402602001604051908101604052809291908181526020018280546108b690611afc565b80156109035780601f106108d857610100808354040283529160200191610903565b820191906000526020600020905b8154815290600101906020018083116108e657829003601f168201915b505050505081565b6000610915610b44565b61091e57600080fd5b60056040518060a0016040528060025481526020018b8b8080601f016020809104026020016040519081016040528093929190818152602001838380828437600081840152601f19601f82011690508083019250505050505050815260200189898080601f016020809104026020016040519081016040528093929190818152602001838380828437600081840152601f19601f82011690508083019250505050505050815260200187878080601f016020809104026020016040519081016040528093929190818152602001838380828437600081840152601f19601f82011690508083019250505050505050815260200185858080601f016020809104026020016040519081016040528093929190818152602001838380828437600081840152601f19601f820116905080830192505050505050508152509080600181540180825580915050600190039060005260206000209060050201600090919091909150600082015181600001556020820151816001019081610aa19190611d08565b506040820151816002019081610ab79190611d08565b506060820151816003019081610acd9190611d08565b506080820151816004019081610ae39190611d08565b50505060026000815480929190610af990611dda565b91905055506001600254610b0d9190611a99565b905098975050505050505050565b60008060009054906101000a900473ffffffffffffffffffffffffffffffffffffffff16905090565b60008060009054906101000a900473ffffffffffffffffffffffffffffffffffffffff1673ffffffffffffffffffffffffffffffffffffffff163373ffffffffffffffffffffffffffffffffffffffff1614905090565b610ba3611421565b60005b600580549050811015610ef2578260058281548110610bc857610bc7611e22565b5b90600052602060002090600502016000015403610edf57604051806040016040528060058381548110610bfe57610bfd611e22565b5b90600052602060002090600502016040518060a001604052908160008201548152602001600182018054610c3190611afc565b80601f0160208091040260200160405190810160405280929190818152602001828054610c5d90611afc565b8015610caa5780601f10610c7f57610100808354040283529160200191610caa565b820191906000526020600020905b815481529060010190602001808311610c8d57829003601f168201915b50505050508152602001600282018054610cc390611afc565b80601f0160208091040260200160405190810160405280929190818152602001828054610cef90611afc565b8015610d3c5780601f10610d1157610100808354040283529160200191610d3c565b820191906000526020600020905b815481529060010190602001808311610d1f57829003601f168201915b50505050508152602001600382018054610d5590611afc565b80601f0160208091040260200160405190810160405280929190818152602001828054610d8190611afc565b8015610dce5780601f10610da357610100808354040283529160200191610dce565b820191906000526020600020905b815481529060010190602001808311610db157829003601f168201915b50505050508152602001600482018054610de790611afc565b80601f0160208091040260200160405190810160405280929190818152602001828054610e1390611afc565b8015610e605780601f10610e3557610100808354040283529160200191610e60565b820191906000526020600020905b815481529060010190602001808311610e4357829003601f168201915b5050505050815250508152602001600073ffffffffffffffffffffffffffffffffffffffff166006600087815260200190815260200160002060009054906101000a900473ffffffffffffffffffffffffffffffffffffffff1673ffffffffffffffffffffffffffffffffffffffff1614151515815250915050610f2e565b8080610eea90611dda565b915050610ba6565b506040517f08c379a0000000000000000000000000000000000000000000000000000000008152600401610f2590611e9d565b60405180910390fd5b919050565b610f3b610b44565b610f4457600080fd5b600073ffffffffffffffffffffffffffffffffffffffff166006600083815260200190815260200160002060009054906101000a900473ffffffffffffffffffffffffffffffffffffffff1673ffffffffffffffffffffffffffffffffffffffff1614610fe6576040517f08c379a0000000000000000000000000000000000000000000000000000000008152600401610fdd90611f09565b60405180910390fd5b816006600083815260200190815260200160002060006101000a81548173ffffffffffffffffffffffffffffffffffffffff021916908373ffffffffffffffffffffffffffffffffffffffff1602179055508173ffffffffffffffffffffffffffffffffffffffff163373ffffffffffffffffffffffffffffffffffffffff167fddf252ad1be2c89b69c2b068fc378daa952ba7f163c4a11628f55a4df523b3ef83604051611095919061172e565b60405180910390a35050565b6004548110156110e6576040517f08c379a00000000000000000000000000000000000000000000000000000000081526004016110dd90611f75565b60405180910390fd5b600354816110f49190611f95565b3414611135576040517f08c379a000000000000000000000000000000000000000000000000000000000815260040161112c90612023565b60405180910390fd5b6111756040518060400160405280600981526020017f70617943726564697400000000000000000000000000000000000000000000008152503383611263565b80600860003373ffffffffffffffffffffffffffffffffffffffff1673ffffffffffffffffffffffffffffffffffffffff16815260200190815260200160002060008282546111c49190612043565b9250508190555050565b6111d6610b44565b6111df57600080fd5b8060038190555050565b60006111f3610b44565b6111fc57600080fd5b6000600860008473ffffffffffffffffffffffffffffffffffffffff1673ffffffffffffffffffffffffffffffffffffffff16815260200190815260200160002054119050919050565b61124e610b44565b61125757600080fd5b61126081611302565b50565b6112fd83838360405160240161127b93929190612077565b6040516020818303038152906040527f0d26b925000000000000000000000000000000000000000000000000000000007bffffffffffffffffffffffffffffffffffffffffffffffffffffffff19166020820180517bffffffffffffffffffffffffffffffffffffffffffffffffffffffff83818316178352505050506113f8565b505050565b600073ffffffffffffffffffffffffffffffffffffffff168173ffffffffffffffffffffffffffffffffffffffff160361133b57600080fd5b8073ffffffffffffffffffffffffffffffffffffffff1660008054906101000a900473ffffffffffffffffffffffffffffffffffffffff1673ffffffffffffffffffffffffffffffffffffffff167f8be0079c531659141344cd1fd0a4f28419497f9722a3daafe3b4186f6b6457e060405160405180910390a3806000806101000a81548173ffffffffffffffffffffffffffffffffffffffff021916908373ffffffffffffffffffffffffffffffffffffffff16021790555050565b60008151905060006a636f6e736f6c652e6c6f679050602083016000808483855afa5050505050565b6040518060400160405280611434611443565b81526020016000151581525090565b6040518060a0016040528060008152602001606081526020016060815260200160608152602001606081525090565b600080fd5b600080fd5b600073ffffffffffffffffffffffffffffffffffffffff82169050919050565b60006114a78261147c565b9050919050565b6114b78161149c565b81146114c257600080fd5b50565b6000813590506114d4816114ae565b92915050565b6000602082840312156114f0576114ef611472565b5b60006114fe848285016114c5565b91505092915050565b600081519050919050565b600082825260208201905092915050565b6000819050602082019050919050565b6000819050919050565b61154681611533565b82525050565b600081519050919050565b600082825260208201905092915050565b60005b8381101561158657808201518184015260208101905061156b565b60008484015250505050565b6000601f19601f8301169050919050565b60006115ae8261154c565b6115b88185611557565b93506115c8818560208601611568565b6115d181611592565b840191505092915050565b600060a0830160008301516115f4600086018261153d565b506020830151848203602086015261160c82826115a3565b9150506040830151848203604086015261162682826115a3565b9150506060830151848203606086015261164082826115a3565b9150506080830151848203608086015261165a82826115a3565b9150508091505092915050565b600061167383836115dc565b905092915050565b6000602082019050919050565b600061169382611507565b61169d8185611512565b9350836020820285016116af85611523565b8060005b858110156116eb57848403895281516116cc8582611667565b94506116d78361167b565b925060208a019950506001810190506116b3565b50829750879550505050505092915050565b600060208201905081810360008301526117178184611688565b905092915050565b61172881611533565b82525050565b6000602082019050611743600083018461171f565b92915050565b61175281611533565b811461175d57600080fd5b50565b60008135905061176f81611749565b92915050565b60006020828403121561178b5761178a611472565b5b600061179984828501611760565b91505092915050565b6117ab8161149c565b82525050565b60006020820190506117c660008301846117a2565b92915050565b600082825260208201905092915050565b60006117e88261154c565b6117f281856117cc565b9350611802818560208601611568565b61180b81611592565b840191505092915050565b6000602082019050818103600083015261183081846117dd565b905092915050565b600080fd5b600080fd5b600080fd5b60008083601f84011261185d5761185c611838565b5b8235905067ffffffffffffffff81111561187a5761187961183d565b5b60208301915083600182028301111561189657611895611842565b5b9250929050565b6000806000806000806000806080898b0312156118bd576118bc611472565b5b600089013567ffffffffffffffff8111156118db576118da611477565b5b6118e78b828c01611847565b9850985050602089013567ffffffffffffffff81111561190a57611909611477565b5b6119168b828c01611847565b9650965050604089013567ffffffffffffffff81111561193957611938611477565b5b6119458b828c01611847565b9450945050606089013567ffffffffffffffff81111561196857611967611477565b5b6119748b828c01611847565b92509250509295985092959890939650565b60008115159050919050565b61199b81611986565b82525050565b60006020820190506119b66000830184611992565b92915050565b6119c581611986565b82525050565b600060408301600083015184820360008601526119e882826115dc565b91505060208301516119fd60208601826119bc565b508091505092915050565b60006020820190508181036000830152611a2281846119cb565b905092915050565b60008060408385031215611a4157611a40611472565b5b6000611a4f858286016114c5565b9250506020611a6085828601611760565b9150509250929050565b7f4e487b7100000000000000000000000000000000000000000000000000000000600052601160045260246000fd5b6000611aa482611533565b9150611aaf83611533565b9250828203905081811115611ac757611ac6611a6a565b5b92915050565b7f4e487b7100000000000000000000000000000000000000000000000000000000600052602260045260246000fd5b60006002820490506001821680611b1457607f821691505b602082108103611b2757611b26611acd565b5b50919050565b7f4e487b7100000000000000000000000000000000000000000000000000000000600052604160045260246000fd5b60008190508160005260206000209050919050565b60006020601f8301049050919050565b600082821b905092915050565b600060088302611bbe7fffffffffffffffffffffffffffffffffffffffffffffffffffffffffffffffff82611b81565b611bc88683611b81565b95508019841693508086168417925050509392505050565b6000819050919050565b6000611c05611c00611bfb84611533565b611be0565b611533565b9050919050565b6000819050919050565b611c1f83611bea565b611c33611c2b82611c0c565b848454611b8e565b825550505050565b600090565b611c48611c3b565b611c53818484611c16565b505050565b5b81811015611c7757611c6c600082611c40565b600181019050611c59565b5050565b601f821115611cbc57611c8d81611b5c565b611c9684611b71565b81016020851015611ca5578190505b611cb9611cb185611b71565b830182611c58565b50505b505050565b600082821c905092915050565b6000611cdf60001984600802611cc1565b1980831691505092915050565b6000611cf88383611cce565b9150826002028217905092915050565b611d118261154c565b67ffffffffffffffff811115611d2a57611d29611b2d565b5b611d348254611afc565b611d3f828285611c7b565b600060209050601f831160018114611d725760008415611d60578287015190505b611d6a8582611cec565b865550611dd2565b601f198416611d8086611b5c565b60005b82811015611da857848901518255600182019150602085019450602081019050611d83565b86831015611dc55784890151611dc1601f891682611cce565b8355505b6001600288020188555050505b505050505050565b6000611de582611533565b91507fffffffffffffffffffffffffffffffffffffffffffffffffffffffffffffffff8203611e1757611e16611a6a565b5b600182019050919050565b7f4e487b7100000000000000000000000000000000000000000000000000000000600052603260045260246000fd5b7f4e6f7420666f756e640000000000000000000000000000000000000000000000600082015250565b6000611e876009836117cc565b9150611e9282611e51565b602082019050919050565b60006020820190508181036000830152611eb681611e7a565b9050919050565b7f6b61746120616c7265616479206f776e65640000000000000000000000000000600082015250565b6000611ef36012836117cc565b9150611efe82611ebd565b602082019050919050565b60006020820190508181036000830152611f2281611ee6565b9050919050565b7f6d696e696d756e20747279206973203230000000000000000000000000000000600082015250565b6000611f5f6011836117cc565b9150611f6a82611f29565b602082019050919050565b60006020820190508181036000830152611f8e81611f52565b9050919050565b6000611fa082611533565b9150611fab83611533565b9250828202611fb981611533565b91508282048414831517611fd057611fcf611a6a565b5b5092915050565b7f796f75206e65656420746f207061792074686520726967687420616d6f756e74600082015250565b600061200d6020836117cc565b915061201882611fd7565b602082019050919050565b6000602082019050818103600083015261203c81612000565b9050919050565b600061204e82611533565b915061205983611533565b925082820190508082111561207157612070611a6a565b5b92915050565b6000606082019050818103600083015261209181866117dd565b90506120a060208301856117a2565b6120ad604083018461171f565b94935050505056fea26469706673582212205650672ace70d045698f71485de5c573df8448f9e9965571fae2377c3db122be64736f6c63430008110033",
  "linkReferences": {},
  "deployedLinkReferences": {}
}