{
  "_format": "hh-sol-artifact-1",
  "contractName": "KataCoins",
  "sourceName": "contracts/KataCoins.sol",
  "abi": [
    {
      "inputs": [],
      "stateMutability": "nonpayable",
      "type": "constructor"
    },
    {
      "anonymous": false,
      "inputs": [
        {
          "indexed": true,
          "internalType": "address",
          "name": "owner",
          "type": "address"
        },
        {
          "indexed": true,
          "internalType": "address",
          "name": "approved",
          "type": "address"
        },
        {
          "indexed": true,
          "internalType": "uint256",
          "name": "tokenId",
          "type": "uint256"
        }
      ],
      "name": "Approval",
      "type": "event"
    },
    {
      "anonymous": false,
      "inputs": [
        {
          "indexed": true,
          "internalType": "address",
          "name": "owner",
          "type": "address"
        },
        {
          "indexed": true,
          "internalType": "address",
          "name": "operator",
          "type": "address"
        },
        {
          "indexed": false,
          "internalType": "bool",
          "name": "approved",
          "type": "bool"
        }
      ],
      "name": "ApprovalForAll",
      "type": "event"
    },
    {
      "anonymous": false,
      "inputs": [
        {
          "indexed": true,
          "internalType": "address",
          "name": "previousOwner",
          "type": "address"
        },
        {
          "indexed": true,
          "internalType": "address",
          "name": "newOwner",
          "type": "address"
        }
      ],
      "name": "OwnershipTransferred",
      "type": "event"
    },
    {
      "anonymous": false,
      "inputs": [
        {
          "indexed": true,
          "internalType": "address",
          "name": "from",
          "type": "address"
        },
        {
          "indexed": true,
          "internalType": "address",
          "name": "to",
          "type": "address"
        },
        {
          "indexed": true,
          "internalType": "uint256",
          "name": "tokenId",
          "type": "uint256"
        }
      ],
      "name": "Transfer",
      "type": "event"
    },
    {
      "inputs": [
        {
          "internalType": "address",
          "name": "to",
          "type": "address"
        },
        {
          "internalType": "uint256",
          "name": "tokenId",
          "type": "uint256"
        }
      ],
      "name": "approve",
      "outputs": [],
      "stateMutability": "nonpayable",
      "type": "function"
    },
    {
      "inputs": [
        {
          "internalType": "address",
          "name": "owner",
          "type": "address"
        }
      ],
      "name": "balanceOf",
      "outputs": [
        {
          "internalType": "uint256",
          "name": "",
          "type": "uint256"
        }
      ],
      "stateMutability": "view",
      "type": "function"
    },
    {
      "inputs": [
        {
          "internalType": "uint256",
          "name": "newFee",
          "type": "uint256"
        }
      ],
      "name": "changeLevelUpFee",
      "outputs": [],
      "stateMutability": "nonpayable",
      "type": "function"
    },
    {
      "inputs": [
        {
          "internalType": "string",
          "name": "name",
          "type": "string"
        },
        {
          "internalType": "string",
          "name": "statement",
          "type": "string"
        },
        {
          "internalType": "string",
          "name": "functionDeclaration",
          "type": "string"
        },
        {
          "internalType": "string",
          "name": "test",
          "type": "string"
        }
      ],
      "name": "createKata",
      "outputs": [
        {
          "internalType": "uint256",
          "name": "",
          "type": "uint256"
        }
      ],
      "stateMutability": "nonpayable",
      "type": "function"
    },
    {
      "inputs": [
        {
          "internalType": "address",
          "name": "user",
          "type": "address"
        },
        {
          "internalType": "uint256",
          "name": "kataId",
          "type": "uint256"
        }
      ],
      "name": "executeKata",
      "outputs": [],
      "stateMutability": "nonpayable",
      "type": "function"
    },
    {
      "inputs": [],
      "name": "getAllKata",
      "outputs": [
        {
          "components": [
            {
              "internalType": "uint256",
              "name": "id",
              "type": "uint256"
            },
            {
              "internalType": "string",
              "name": "name",
              "type": "string"
            },
            {
              "internalType": "string",
              "name": "statement",
              "type": "string"
            },
            {
              "internalType": "string",
              "name": "functionDeclaration",
              "type": "string"
            },
            {
              "internalType": "string",
              "name": "test",
              "type": "string"
            }
          ],
          "internalType": "struct KataCoins.Kata[]",
          "name": "",
          "type": "tuple[]"
        }
      ],
      "stateMutability": "view",
      "type": "function"
    },
    {
      "inputs": [
        {
          "internalType": "uint256",
          "name": "tokenId",
          "type": "uint256"
        }
      ],
      "name": "getApproved",
      "outputs": [
        {
          "internalType": "address",
          "name": "",
          "type": "address"
        }
      ],
      "stateMutability": "view",
      "type": "function"
    },
    {
      "inputs": [],
      "name": "getCredit",
      "outputs": [
        {
          "internalType": "uint256",
          "name": "",
          "type": "uint256"
        }
      ],
      "stateMutability": "view",
      "type": "function"
    },
    {
      "inputs": [],
      "name": "getExecFee",
      "outputs": [
        {
          "internalType": "uint256",
          "name": "",
          "type": "uint256"
        }
      ],
      "stateMutability": "view",
      "type": "function"
    },
    {
      "inputs": [
        {
          "internalType": "uint256",
          "name": "kataId",
          "type": "uint256"
        }
      ],
      "name": "getKata",
      "outputs": [
        {
          "components": [
            {
              "components": [
                {
                  "internalType": "uint256",
                  "name": "id",
                  "type": "uint256"
                },
                {
                  "internalType": "string",
                  "name": "name",
                  "type": "string"
                },
                {
                  "internalType": "string",
                  "name": "statement",
                  "type": "string"
                },
                {
                  "internalType": "string",
                  "name": "functionDeclaration",
                  "type": "string"
                },
                {
                  "internalType": "string",
                  "name": "test",
                  "type": "string"
                }
              ],
              "internalType": "struct KataCoins.Kata",
              "name": "kata",
              "type": "tuple"
            },
            {
              "internalType": "bool",
              "name": "isOwned",
              "type": "bool"
            }
          ],
          "internalType": "struct KataCoins.Response",
          "name": "",
          "type": "tuple"
        }
      ],
      "stateMutability": "view",
      "type": "function"
    },
    {
      "inputs": [
        {
          "internalType": "address",
          "name": "user",
          "type": "address"
        },
        {
          "internalType": "uint256",
          "name": "kataID",
          "type": "uint256"
        }
      ],
      "name": "hasSolvedKata",
      "outputs": [
        {
          "internalType": "bool",
          "name": "",
          "type": "bool"
        }
      ],
      "stateMutability": "view",
      "type": "function"
    },
    {
      "inputs": [
        {
          "internalType": "address",
          "name": "owner",
          "type": "address"
        },
        {
          "internalType": "address",
          "name": "operator",
          "type": "address"
        }
      ],
      "name": "isApprovedForAll",
      "outputs": [
        {
          "internalType": "bool",
          "name": "",
          "type": "bool"
        }
      ],
      "stateMutability": "view",
      "type": "function"
    },
    {
      "inputs": [
        {
          "internalType": "uint256",
          "name": "tokenId",
          "type": "uint256"
        }
      ],
      "name": "mintKata",
      "outputs": [],
      "stateMutability": "nonpayable",
      "type": "function"
    },
    {
      "inputs": [],
      "name": "name",
      "outputs": [
        {
          "internalType": "string",
          "name": "",
          "type": "string"
        }
      ],
      "stateMutability": "view",
      "type": "function"
    },
    {
      "inputs": [],
      "name": "owner",
      "outputs": [
        {
          "internalType": "address",
          "name": "",
          "type": "address"
        }
      ],
      "stateMutability": "view",
      "type": "function"
    },
    {
      "inputs": [
        {
          "internalType": "uint256",
          "name": "tokenId",
          "type": "uint256"
        }
      ],
      "name": "ownerOf",
      "outputs": [
        {
          "internalType": "address",
          "name": "",
          "type": "address"
        }
      ],
      "stateMutability": "view",
      "type": "function"
    },
    {
      "inputs": [
        {
          "internalType": "uint256",
          "name": "nbTry",
          "type": "uint256"
        }
      ],
      "name": "payCredit",
      "outputs": [],
      "stateMutability": "payable",
      "type": "function"
    },
    {
      "inputs": [],
      "name": "renounceOwnership",
      "outputs": [],
      "stateMutability": "nonpayable",
      "type": "function"
    },
    {
      "inputs": [
        {
          "internalType": "address",
          "name": "from",
          "type": "address"
        },
        {
          "internalType": "address",
          "name": "to",
          "type": "address"
        },
        {
          "internalType": "uint256",
          "name": "tokenId",
          "type": "uint256"
        }
      ],
      "name": "safeTransferFrom",
      "outputs": [],
      "stateMutability": "nonpayable",
      "type": "function"
    },
    {
      "inputs": [
        {
          "internalType": "address",
          "name": "from",
          "type": "address"
        },
        {
          "internalType": "address",
          "name": "to",
          "type": "address"
        },
        {
          "internalType": "uint256",
          "name": "tokenId",
          "type": "uint256"
        },
        {
          "internalType": "bytes",
          "name": "data",
          "type": "bytes"
        }
      ],
      "name": "safeTransferFrom",
      "outputs": [],
      "stateMutability": "nonpayable",
      "type": "function"
    },
    {
      "inputs": [
        {
          "internalType": "address",
          "name": "operator",
          "type": "address"
        },
        {
          "internalType": "bool",
          "name": "approved",
          "type": "bool"
        }
      ],
      "name": "setApprovalForAll",
      "outputs": [],
      "stateMutability": "nonpayable",
      "type": "function"
    },
    {
      "inputs": [
        {
          "internalType": "address",
          "name": "user",
          "type": "address"
        },
        {
          "internalType": "uint256",
          "name": "kataID",
          "type": "uint256"
        }
      ],
      "name": "setHasSolvedKata",
      "outputs": [],
      "stateMutability": "nonpayable",
      "type": "function"
    },
    {
      "inputs": [
        {
          "internalType": "bytes4",
          "name": "interfaceId",
          "type": "bytes4"
        }
      ],
      "name": "supportsInterface",
      "outputs": [
        {
          "internalType": "bool",
          "name": "",
          "type": "bool"
        }
      ],
      "stateMutability": "view",
      "type": "function"
    },
    {
      "inputs": [],
      "name": "symbol",
      "outputs": [
        {
          "internalType": "string",
          "name": "",
          "type": "string"
        }
      ],
      "stateMutability": "view",
      "type": "function"
    },
    {
      "inputs": [
        {
          "internalType": "uint256",
          "name": "tokenId",
          "type": "uint256"
        }
      ],
      "name": "tokenURI",
      "outputs": [
        {
          "internalType": "string",
          "name": "",
          "type": "string"
        }
      ],
      "stateMutability": "view",
      "type": "function"
    },
    {
      "inputs": [
        {
          "internalType": "address",
          "name": "from",
          "type": "address"
        },
        {
          "internalType": "address",
          "name": "to",
          "type": "address"
        },
        {
          "internalType": "uint256",
          "name": "tokenId",
          "type": "uint256"
        }
      ],
      "name": "transferFrom",
      "outputs": [],
      "stateMutability": "nonpayable",
      "type": "function"
    },
    {
      "inputs": [
        {
          "internalType": "address",
          "name": "newOwner",
          "type": "address"
        }
      ],
      "name": "transferOwnership",
      "outputs": [],
      "stateMutability": "nonpayable",
      "type": "function"
    }
  ],
  "bytecode": "0x6080604052600060075566038d7ea4c6800060085560146009553480156200002657600080fd5b506040518060400160405280600981526020017f4b617461436f696e7300000000000000000000000000000000000000000000008152506040518060400160405280600381526020017f4b54430000000000000000000000000000000000000000000000000000000000815250620000b3620000a7620000df60201b60201c565b620000e760201b60201c565b8160019081620000c4919062000425565b508060029081620000d6919062000425565b5050506200050c565b600033905090565b60008060009054906101000a900473ffffffffffffffffffffffffffffffffffffffff169050816000806101000a81548173ffffffffffffffffffffffffffffffffffffffff021916908373ffffffffffffffffffffffffffffffffffffffff1602179055508173ffffffffffffffffffffffffffffffffffffffff168173ffffffffffffffffffffffffffffffffffffffff167f8be0079c531659141344cd1fd0a4f28419497f9722a3daafe3b4186f6b6457e060405160405180910390a35050565b600081519050919050565b7f4e487b7100000000000000000000000000000000000000000000000000000000600052604160045260246000fd5b7f4e487b7100000000000000000000000000000000000000000000000000000000600052602260045260246000fd5b600060028204905060018216806200022d57607f821691505b602082108103620002435762000242620001e5565b5b50919050565b60008190508160005260206000209050919050565b60006020601f8301049050919050565b600082821b905092915050565b600060088302620002ad7fffffffffffffffffffffffffffffffffffffffffffffffffffffffffffffffff826200026e565b620002b986836200026e565b95508019841693508086168417925050509392505050565b6000819050919050565b6000819050919050565b60006200030662000300620002fa84620002d1565b620002db565b620002d1565b9050919050565b6000819050919050565b6200032283620002e5565b6200033a62000331826200030d565b8484546200027b565b825550505050565b600090565b6200035162000342565b6200035e81848462000317565b505050565b5b8181101562000386576200037a60008262000347565b60018101905062000364565b5050565b601f821115620003d5576200039f8162000249565b620003aa846200025e565b81016020851015620003ba578190505b620003d2620003c9856200025e565b83018262000363565b50505b505050565b600082821c905092915050565b6000620003fa60001984600802620003da565b1980831691505092915050565b6000620004158383620003e7565b9150826002028217905092915050565b6200043082620001ab565b67ffffffffffffffff8111156200044c576200044b620001b6565b5b62000458825462000214565b620004658282856200038a565b600060209050601f8311600181146200049d576000841562000488578287015190505b62000494858262000407565b86555062000504565b601f198416620004ad8662000249565b60005b82811015620004d757848901518255600182019150602085019450602081019050620004b0565b86831015620004f75784890151620004f3601f891682620003e7565b8355505b6001600288020188555050505b505050505050565b6147da806200051c6000396000f3fe60806040526004361061019c5760003560e01c8063715018a6116100ec578063be9c3cec1161008a578063d62605d511610064578063d62605d5146105ea578063e2f805cd14610606578063e985e9c51461062f578063f2fde38b1461066c5761019c565b8063be9c3cec1461055b578063c87b56dd14610584578063d578f0ed146105c15761019c565b806394d18e66116100c657806394d18e66146104a157806395d89b41146104de578063a22cb46514610509578063b88d4fde146105325761019c565b8063715018a614610422578063858a3746146104395780638da5cb5b146104765761019c565b806342842e0e1161015957806359296e7b1161013357806359296e7b146103545780636352211e1461037f5780636992ba8d146103bc57806370a08231146103e55761019c565b806342842e0e146102d55780634d3ffd97146102fe578063555e0673146103295761019c565b806301ffc9a7146101a157806306fdde03146101de578063081812fc14610209578063095ea7b3146102465780631b52234c1461026f57806323b872dd146102ac575b600080fd5b3480156101ad57600080fd5b506101c860048036038101906101c39190612f53565b610695565b6040516101d59190612f9b565b60405180910390f35b3480156101ea57600080fd5b506101f3610777565b6040516102009190613046565b60405180910390f35b34801561021557600080fd5b50610230600480360381019061022b919061309e565b610809565b60405161023d919061310c565b60405180910390f35b34801561025257600080fd5b5061026d60048036038101906102689190613153565b61084f565b005b34801561027b57600080fd5b5061029660048036038101906102919190613153565b610966565b6040516102a39190612f9b565b60405180910390f35b3480156102b857600080fd5b506102d360048036038101906102ce9190613193565b610a87565b005b3480156102e157600080fd5b506102fc60048036038101906102f79190613193565b610ae7565b005b34801561030a57600080fd5b50610313610b07565b60405161032091906131f5565b60405180910390f35b34801561033557600080fd5b5061033e610b11565b60405161034b91906133b6565b60405180910390f35b34801561036057600080fd5b50610369610dc2565b60405161037691906131f5565b60405180910390f35b34801561038b57600080fd5b506103a660048036038101906103a1919061309e565b610e88565b6040516103b3919061310c565b60405180910390f35b3480156103c857600080fd5b506103e360048036038101906103de919061309e565b610f0e565b005b3480156103f157600080fd5b5061040c600480360381019061040791906133d8565b610f83565b60405161041991906131f5565b60405180910390f35b34801561042e57600080fd5b5061043761103a565b005b34801561044557600080fd5b50610460600480360381019061045b919061346a565b61104e565b60405161046d91906131f5565b60405180910390f35b34801561048257600080fd5b5061048b611255565b604051610498919061310c565b60405180910390f35b3480156104ad57600080fd5b506104c860048036038101906104c3919061309e565b61127e565b6040516104d5919061359f565b60405180910390f35b3480156104ea57600080fd5b506104f36115eb565b6040516105009190613046565b60405180910390f35b34801561051557600080fd5b50610530600480360381019061052b91906135ed565b61167d565b005b34801561053e57600080fd5b506105596004803603810190610554919061375d565b611693565b005b34801561056757600080fd5b50610582600480360381019061057d9190613153565b6116f5565b005b34801561059057600080fd5b506105ab60048036038101906105a6919061309e565b6117ec565b6040516105b89190613046565b60405180910390f35b3480156105cd57600080fd5b506105e860048036038101906105e39190613153565b611854565b005b61060460048036038101906105ff919061309e565b611a68565b005b34801561061257600080fd5b5061062d6004803603810190610628919061309e565b611b95565b005b34801561063b57600080fd5b50610656600480360381019061065191906137e0565b611ba7565b6040516106639190612f9b565b60405180910390f35b34801561067857600080fd5b50610693600480360381019061068e91906133d8565b611c3b565b005b60007f80ac58cd000000000000000000000000000000000000000000000000000000007bffffffffffffffffffffffffffffffffffffffffffffffffffffffff1916827bffffffffffffffffffffffffffffffffffffffffffffffffffffffff1916148061076057507f5b5e139f000000000000000000000000000000000000000000000000000000007bffffffffffffffffffffffffffffffffffffffffffffffffffffffff1916827bffffffffffffffffffffffffffffffffffffffffffffffffffffffff1916145b80610770575061076f82611cbe565b5b9050919050565b6060600180546107869061384f565b80601f01602080910402602001604051908101604052809291908181526020018280546107b29061384f565b80156107ff5780601f106107d4576101008083540402835291602001916107ff565b820191906000526020600020905b8154815290600101906020018083116107e257829003601f168201915b5050505050905090565b600061081482611d28565b6005600083815260200190815260200160002060009054906101000a900473ffffffffffffffffffffffffffffffffffffffff169050919050565b600061085a82610e88565b90508073ffffffffffffffffffffffffffffffffffffffff168373ffffffffffffffffffffffffffffffffffffffff16036108ca576040517f08c379a00000000000000000000000000000000000000000000000000000000081526004016108c1906138f2565b60405180910390fd5b8073ffffffffffffffffffffffffffffffffffffffff166108e9611d73565b73ffffffffffffffffffffffffffffffffffffffff161480610918575061091781610912611d73565b611ba7565b5b610957576040517f08c379a000000000000000000000000000000000000000000000000000000000815260040161094e90613984565b60405180910390fd5b6109618383611d7b565b505050565b600080600b60008481526020019081526020016000208054806020026020016040519081016040528092919081815260200182805480156109fc57602002820191906000526020600020905b8160009054906101000a900473ffffffffffffffffffffffffffffffffffffffff1673ffffffffffffffffffffffffffffffffffffffff16815260200190600101908083116109b2575b5050505050905060005b8151811015610a7a578473ffffffffffffffffffffffffffffffffffffffff16828281518110610a3957610a386139a4565b5b602002602001015173ffffffffffffffffffffffffffffffffffffffff1603610a6757600192505050610a81565b8080610a7290613a02565b915050610a06565b5060009150505b92915050565b610a98610a92611d73565b82611e34565b610ad7576040517f08c379a0000000000000000000000000000000000000000000000000000000008152600401610ace90613abc565b60405180910390fd5b610ae2838383611ec9565b505050565b610b0283838360405180602001604052806000815250611693565b505050565b6000600854905090565b6060600a805480602002602001604051908101604052809291908181526020016000905b82821015610db957838290600052602060002090600502016040518060a001604052908160008201548152602001600182018054610b729061384f565b80601f0160208091040260200160405190810160405280929190818152602001828054610b9e9061384f565b8015610beb5780601f10610bc057610100808354040283529160200191610beb565b820191906000526020600020905b815481529060010190602001808311610bce57829003601f168201915b50505050508152602001600282018054610c049061384f565b80601f0160208091040260200160405190810160405280929190818152602001828054610c309061384f565b8015610c7d5780601f10610c5257610100808354040283529160200191610c7d565b820191906000526020600020905b815481529060010190602001808311610c6057829003601f168201915b50505050508152602001600382018054610c969061384f565b80601f0160208091040260200160405190810160405280929190818152602001828054610cc29061384f565b8015610d0f5780601f10610ce457610100808354040283529160200191610d0f565b820191906000526020600020905b815481529060010190602001808311610cf257829003601f168201915b50505050508152602001600482018054610d289061384f565b80601f0160208091040260200160405190810160405280929190818152602001828054610d549061384f565b8015610da15780601f10610d7657610100808354040283529160200191610da1565b820191906000526020600020905b815481529060010190602001808311610d8457829003601f168201915b50505050508152505081526020019060010190610b35565b50505050905090565b6000610e436040518060400160405280600981526020017f676574437265646974000000000000000000000000000000000000000000000081525033600c60003373ffffffffffffffffffffffffffffffffffffffff1673ffffffffffffffffffffffffffffffffffffffff168152602001908152602001600020546121c2565b600c60003373ffffffffffffffffffffffffffffffffffffffff1673ffffffffffffffffffffffffffffffffffffffff16815260200190815260200160002054905090565b600080610e9483612261565b9050600073ffffffffffffffffffffffffffffffffffffffff168173ffffffffffffffffffffffffffffffffffffffff1603610f05576040517f08c379a0000000000000000000000000000000000000000000000000000000008152600401610efc90613b28565b60405180910390fd5b80915050919050565b610f183382610966565b610f57576040517f08c379a0000000000000000000000000000000000000000000000000000000008152600401610f4e90613bba565b60405180910390fd5b600b60008281526020019081526020016000206000610f769190612e58565b610f80338261229e565b50565b60008073ffffffffffffffffffffffffffffffffffffffff168273ffffffffffffffffffffffffffffffffffffffff1603610ff3576040517f08c379a0000000000000000000000000000000000000000000000000000000008152600401610fea90613c4c565b60405180910390fd5b600460008373ffffffffffffffffffffffffffffffffffffffff1673ffffffffffffffffffffffffffffffffffffffff168152602001908152602001600020549050919050565b6110426122bc565b61104c600061233a565b565b60006110586122bc565b600a6040518060a0016040528060075481526020018b8b8080601f016020809104026020016040519081016040528093929190818152602001838380828437600081840152601f19601f82011690508083019250505050505050815260200189898080601f016020809104026020016040519081016040528093929190818152602001838380828437600081840152601f19601f82011690508083019250505050505050815260200187878080601f016020809104026020016040519081016040528093929190818152602001838380828437600081840152601f19601f82011690508083019250505050505050815260200185858080601f016020809104026020016040519081016040528093929190818152602001838380828437600081840152601f19601f8201169050808301925050505050505081525090806001815401808255809150506001900390600052602060002090600502016000909190919091506000820151816000015560208201518160010190816111db9190613e18565b5060408201518160020190816111f19190613e18565b5060608201518160030190816112079190613e18565b50608082015181600401908161121d9190613e18565b5050506007600081548092919061123390613a02565b919050555060016007546112479190613eea565b905098975050505050505050565b60008060009054906101000a900473ffffffffffffffffffffffffffffffffffffffff16905090565b611286612e79565b60005b600a805490508110156115aa5782600a82815481106112ab576112aa6139a4565b5b90600052602060002090600502016000015403611597576040518060400160405280600a83815481106112e1576112e06139a4565b5b90600052602060002090600502016040518060a0016040529081600082015481526020016001820180546113149061384f565b80601f01602080910402602001604051908101604052809291908181526020018280546113409061384f565b801561138d5780601f106113625761010080835404028352916020019161138d565b820191906000526020600020905b81548152906001019060200180831161137057829003601f168201915b505050505081526020016002820180546113a69061384f565b80601f01602080910402602001604051908101604052809291908181526020018280546113d29061384f565b801561141f5780601f106113f45761010080835404028352916020019161141f565b820191906000526020600020905b81548152906001019060200180831161140257829003601f168201915b505050505081526020016003820180546114389061384f565b80601f01602080910402602001604051908101604052809291908181526020018280546114649061384f565b80156114b15780601f10611486576101008083540402835291602001916114b1565b820191906000526020600020905b81548152906001019060200180831161149457829003601f168201915b505050505081526020016004820180546114ca9061384f565b80601f01602080910402602001604051908101604052809291908181526020018280546114f69061384f565b80156115435780601f1061151857610100808354040283529160200191611543565b820191906000526020600020905b81548152906001019060200180831161152657829003601f168201915b5050505050815250508152602001600073ffffffffffffffffffffffffffffffffffffffff1661157286612261565b73ffffffffffffffffffffffffffffffffffffffff16141515158152509150506115e6565b80806115a290613a02565b915050611289565b506040517f08c379a00000000000000000000000000000000000000000000000000000000081526004016115dd90613f6a565b60405180910390fd5b919050565b6060600280546115fa9061384f565b80601f01602080910402602001604051908101604052809291908181526020018280546116269061384f565b80156116735780601f1061164857610100808354040283529160200191611673565b820191906000526020600020905b81548152906001019060200180831161165657829003601f168201915b5050505050905090565b61168f611688611d73565b83836123fe565b5050565b6116a461169e611d73565b83611e34565b6116e3576040517f08c379a00000000000000000000000000000000000000000000000000000000081526004016116da90613abc565b60405180910390fd5b6116ef8484848461256a565b50505050565b6116fd6122bc565b600073ffffffffffffffffffffffffffffffffffffffff1661171e82612261565b73ffffffffffffffffffffffffffffffffffffffff1614611774576040517f08c379a000000000000000000000000000000000000000000000000000000000815260040161176b90613fd6565b60405180910390fd5b600b6000828152602001908152602001600020829080600181540180825580915050600190039060005260206000200160009091909190916101000a81548173ffffffffffffffffffffffffffffffffffffffff021916908373ffffffffffffffffffffffffffffffffffffffff1602179055505050565b60606117f782611d28565b60006118016125c6565b90506000815111611821576040518060200160405280600081525061184c565b8061182b846125dd565b60405160200161183c929190614032565b6040516020818303038152906040525b915050919050565b61185c6122bc565b600073ffffffffffffffffffffffffffffffffffffffff1661187d82612261565b73ffffffffffffffffffffffffffffffffffffffff16146118d3576040517f08c379a00000000000000000000000000000000000000000000000000000000081526004016118ca90613fd6565b60405180910390fd5b6000600c60008473ffffffffffffffffffffffffffffffffffffffff1673ffffffffffffffffffffffffffffffffffffffff1681526020019081526020016000205411611955576040517f08c379a000000000000000000000000000000000000000000000000000000000815260040161194c906140a2565b60405180910390fd5b6001600c60008473ffffffffffffffffffffffffffffffffffffffff1673ffffffffffffffffffffffffffffffffffffffff168152602001908152602001600020546119a19190613eea565b600c60008473ffffffffffffffffffffffffffffffffffffffff1673ffffffffffffffffffffffffffffffffffffffff16815260200190815260200160002081905550611a646040518060400160405280600b81526020017f657865637574654b6174610000000000000000000000000000000000000000008152508383600c60008773ffffffffffffffffffffffffffffffffffffffff1673ffffffffffffffffffffffffffffffffffffffff168152602001908152602001600020546126ab565b5050565b600954811015611aad576040517f08c379a0000000000000000000000000000000000000000000000000000000008152600401611aa49061410e565b60405180910390fd5b60085481611abb919061412e565b3414611afc576040517f08c379a0000000000000000000000000000000000000000000000000000000008152600401611af3906141bc565b60405180910390fd5b611b3c6040518060400160405280600981526020017f706179437265646974000000000000000000000000000000000000000000000081525033836121c2565b80600c60003373ffffffffffffffffffffffffffffffffffffffff1673ffffffffffffffffffffffffffffffffffffffff1681526020019081526020016000206000828254611b8b91906141dc565b9250508190555050565b611b9d6122bc565b8060088190555050565b6000600660008473ffffffffffffffffffffffffffffffffffffffff1673ffffffffffffffffffffffffffffffffffffffff16815260200190815260200160002060008373ffffffffffffffffffffffffffffffffffffffff1673ffffffffffffffffffffffffffffffffffffffff16815260200190815260200160002060009054906101000a900460ff16905092915050565b611c436122bc565b600073ffffffffffffffffffffffffffffffffffffffff168173ffffffffffffffffffffffffffffffffffffffff1603611cb2576040517f08c379a0000000000000000000000000000000000000000000000000000000008152600401611ca990614282565b60405180910390fd5b611cbb8161233a565b50565b60007f01ffc9a7000000000000000000000000000000000000000000000000000000007bffffffffffffffffffffffffffffffffffffffffffffffffffffffff1916827bffffffffffffffffffffffffffffffffffffffffffffffffffffffff1916149050919050565b611d318161274d565b611d70576040517f08c379a0000000000000000000000000000000000000000000000000000000008152600401611d6790613b28565b60405180910390fd5b50565b600033905090565b816005600083815260200190815260200160002060006101000a81548173ffffffffffffffffffffffffffffffffffffffff021916908373ffffffffffffffffffffffffffffffffffffffff160217905550808273ffffffffffffffffffffffffffffffffffffffff16611dee83610e88565b73ffffffffffffffffffffffffffffffffffffffff167f8c5be1e5ebec7d5bd14f71427d1e84f3dd0314c0f7b2291e5b200ac8c7c3b92560405160405180910390a45050565b600080611e4083610e88565b90508073ffffffffffffffffffffffffffffffffffffffff168473ffffffffffffffffffffffffffffffffffffffff161480611e825750611e818185611ba7565b5b80611ec057508373ffffffffffffffffffffffffffffffffffffffff16611ea884610809565b73ffffffffffffffffffffffffffffffffffffffff16145b91505092915050565b8273ffffffffffffffffffffffffffffffffffffffff16611ee982610e88565b73ffffffffffffffffffffffffffffffffffffffff1614611f3f576040517f08c379a0000000000000000000000000000000000000000000000000000000008152600401611f3690614314565b60405180910390fd5b600073ffffffffffffffffffffffffffffffffffffffff168273ffffffffffffffffffffffffffffffffffffffff1603611fae576040517f08c379a0000000000000000000000000000000000000000000000000000000008152600401611fa5906143a6565b60405180910390fd5b611fbb838383600161278e565b8273ffffffffffffffffffffffffffffffffffffffff16611fdb82610e88565b73ffffffffffffffffffffffffffffffffffffffff1614612031576040517f08c379a000000000000000000000000000000000000000000000000000000000815260040161202890614314565b60405180910390fd5b6005600082815260200190815260200160002060006101000a81549073ffffffffffffffffffffffffffffffffffffffff02191690556001600460008573ffffffffffffffffffffffffffffffffffffffff1673ffffffffffffffffffffffffffffffffffffffff168152602001908152602001600020600082825403925050819055506001600460008473ffffffffffffffffffffffffffffffffffffffff1673ffffffffffffffffffffffffffffffffffffffff16815260200190815260200160002060008282540192505081905550816003600083815260200190815260200160002060006101000a81548173ffffffffffffffffffffffffffffffffffffffff021916908373ffffffffffffffffffffffffffffffffffffffff160217905550808273ffffffffffffffffffffffffffffffffffffffff168473ffffffffffffffffffffffffffffffffffffffff167fddf252ad1be2c89b69c2b068fc378daa952ba7f163c4a11628f55a4df523b3ef60405160405180910390a46121bd83838360016128b4565b505050565b61225c8383836040516024016121da939291906143c6565b6040516020818303038152906040527f0d26b925000000000000000000000000000000000000000000000000000000007bffffffffffffffffffffffffffffffffffffffffffffffffffffffff19166020820180517bffffffffffffffffffffffffffffffffffffffffffffffffffffffff83818316178352505050506128ba565b505050565b60006003600083815260200190815260200160002060009054906101000a900473ffffffffffffffffffffffffffffffffffffffff169050919050565b6122b88282604051806020016040528060008152506128e3565b5050565b6122c4611d73565b73ffffffffffffffffffffffffffffffffffffffff166122e2611255565b73ffffffffffffffffffffffffffffffffffffffff1614612338576040517f08c379a000000000000000000000000000000000000000000000000000000000815260040161232f90614450565b60405180910390fd5b565b60008060009054906101000a900473ffffffffffffffffffffffffffffffffffffffff169050816000806101000a81548173ffffffffffffffffffffffffffffffffffffffff021916908373ffffffffffffffffffffffffffffffffffffffff1602179055508173ffffffffffffffffffffffffffffffffffffffff168173ffffffffffffffffffffffffffffffffffffffff167f8be0079c531659141344cd1fd0a4f28419497f9722a3daafe3b4186f6b6457e060405160405180910390a35050565b8173ffffffffffffffffffffffffffffffffffffffff168373ffffffffffffffffffffffffffffffffffffffff160361246c576040517f08c379a0000000000000000000000000000000000000000000000000000000008152600401612463906144bc565b60405180910390fd5b80600660008573ffffffffffffffffffffffffffffffffffffffff1673ffffffffffffffffffffffffffffffffffffffff16815260200190815260200160002060008473ffffffffffffffffffffffffffffffffffffffff1673ffffffffffffffffffffffffffffffffffffffff16815260200190815260200160002060006101000a81548160ff0219169083151502179055508173ffffffffffffffffffffffffffffffffffffffff168373ffffffffffffffffffffffffffffffffffffffff167f17307eab39ab6107e8899845ad3d59bd9653f200f220920489ca2b5937696c318360405161255d9190612f9b565b60405180910390a3505050565b612575848484611ec9565b6125818484848461293e565b6125c0576040517f08c379a00000000000000000000000000000000000000000000000000000000081526004016125b79061454e565b60405180910390fd5b50505050565b606060405180602001604052806000815250905090565b6060600060016125ec84612ac5565b01905060008167ffffffffffffffff81111561260b5761260a613632565b5b6040519080825280601f01601f19166020018201604052801561263d5781602001600182028036833780820191505090505b509050600082602001820190505b6001156126a0578080600190039150507f3031323334353637383961626364656600000000000000000000000000000000600a86061a8153600a85816126945761269361456e565b5b0494506000850361264b575b819350505050919050565b612747848484846040516024016126c5949392919061459d565b6040516020818303038152906040527ff8f51b1e000000000000000000000000000000000000000000000000000000007bffffffffffffffffffffffffffffffffffffffffffffffffffffffff19166020820180517bffffffffffffffffffffffffffffffffffffffffffffffffffffffff83818316178352505050506128ba565b50505050565b60008073ffffffffffffffffffffffffffffffffffffffff1661276f83612261565b73ffffffffffffffffffffffffffffffffffffffff1614159050919050565b60018111156128ae57600073ffffffffffffffffffffffffffffffffffffffff168473ffffffffffffffffffffffffffffffffffffffff16146128225780600460008673ffffffffffffffffffffffffffffffffffffffff1673ffffffffffffffffffffffffffffffffffffffff168152602001908152602001600020600082825461281a9190613eea565b925050819055505b600073ffffffffffffffffffffffffffffffffffffffff168373ffffffffffffffffffffffffffffffffffffffff16146128ad5780600460008573ffffffffffffffffffffffffffffffffffffffff1673ffffffffffffffffffffffffffffffffffffffff16815260200190815260200160002060008282546128a591906141dc565b925050819055505b5b50505050565b50505050565b60008151905060006a636f6e736f6c652e6c6f679050602083016000808483855afa5050505050565b6128ed8383612c18565b6128fa600084848461293e565b612939576040517f08c379a00000000000000000000000000000000000000000000000000000000081526004016129309061454e565b60405180910390fd5b505050565b600061295f8473ffffffffffffffffffffffffffffffffffffffff16612e35565b15612ab8578373ffffffffffffffffffffffffffffffffffffffff1663150b7a02612988611d73565b8786866040518563ffffffff1660e01b81526004016129aa949392919061463e565b6020604051808303816000875af19250505080156129e657506040513d601f19601f820116820180604052508101906129e3919061469f565b60015b612a68573d8060008114612a16576040519150601f19603f3d011682016040523d82523d6000602084013e612a1b565b606091505b506000815103612a60576040517f08c379a0000000000000000000000000000000000000000000000000000000008152600401612a579061454e565b60405180910390fd5b805181602001fd5b63150b7a0260e01b7bffffffffffffffffffffffffffffffffffffffffffffffffffffffff1916817bffffffffffffffffffffffffffffffffffffffffffffffffffffffff191614915050612abd565b600190505b949350505050565b600080600090507a184f03e93ff9f4daa797ed6e38ed64bf6a1f0100000000000000008310612b23577a184f03e93ff9f4daa797ed6e38ed64bf6a1f0100000000000000008381612b1957612b1861456e565b5b0492506040810190505b6d04ee2d6d415b85acef81000000008310612b60576d04ee2d6d415b85acef81000000008381612b5657612b5561456e565b5b0492506020810190505b662386f26fc100008310612b8f57662386f26fc100008381612b8557612b8461456e565b5b0492506010810190505b6305f5e1008310612bb8576305f5e1008381612bae57612bad61456e565b5b0492506008810190505b6127108310612bdd576127108381612bd357612bd261456e565b5b0492506004810190505b60648310612c005760648381612bf657612bf561456e565b5b0492506002810190505b600a8310612c0f576001810190505b80915050919050565b600073ffffffffffffffffffffffffffffffffffffffff168273ffffffffffffffffffffffffffffffffffffffff1603612c87576040517f08c379a0000000000000000000000000000000000000000000000000000000008152600401612c7e90614718565b60405180910390fd5b612c908161274d565b15612cd0576040517f08c379a0000000000000000000000000000000000000000000000000000000008152600401612cc790614784565b60405180910390fd5b612cde60008383600161278e565b612ce78161274d565b15612d27576040517f08c379a0000000000000000000000000000000000000000000000000000000008152600401612d1e90614784565b60405180910390fd5b6001600460008473ffffffffffffffffffffffffffffffffffffffff1673ffffffffffffffffffffffffffffffffffffffff16815260200190815260200160002060008282540192505081905550816003600083815260200190815260200160002060006101000a81548173ffffffffffffffffffffffffffffffffffffffff021916908373ffffffffffffffffffffffffffffffffffffffff160217905550808273ffffffffffffffffffffffffffffffffffffffff16600073ffffffffffffffffffffffffffffffffffffffff167fddf252ad1be2c89b69c2b068fc378daa952ba7f163c4a11628f55a4df523b3ef60405160405180910390a4612e316000838360016128b4565b5050565b6000808273ffffffffffffffffffffffffffffffffffffffff163b119050919050565b5080546000825590600052602060002090810190612e769190612e9b565b50565b6040518060400160405280612e8c612eb8565b81526020016000151581525090565b5b80821115612eb4576000816000905550600101612e9c565b5090565b6040518060a0016040528060008152602001606081526020016060815260200160608152602001606081525090565b6000604051905090565b600080fd5b600080fd5b60007fffffffff0000000000000000000000000000000000000000000000000000000082169050919050565b612f3081612efb565b8114612f3b57600080fd5b50565b600081359050612f4d81612f27565b92915050565b600060208284031215612f6957612f68612ef1565b5b6000612f7784828501612f3e565b91505092915050565b60008115159050919050565b612f9581612f80565b82525050565b6000602082019050612fb06000830184612f8c565b92915050565b600081519050919050565b600082825260208201905092915050565b60005b83811015612ff0578082015181840152602081019050612fd5565b60008484015250505050565b6000601f19601f8301169050919050565b600061301882612fb6565b6130228185612fc1565b9350613032818560208601612fd2565b61303b81612ffc565b840191505092915050565b60006020820190508181036000830152613060818461300d565b905092915050565b6000819050919050565b61307b81613068565b811461308657600080fd5b50565b60008135905061309881613072565b92915050565b6000602082840312156130b4576130b3612ef1565b5b60006130c284828501613089565b91505092915050565b600073ffffffffffffffffffffffffffffffffffffffff82169050919050565b60006130f6826130cb565b9050919050565b613106816130eb565b82525050565b600060208201905061312160008301846130fd565b92915050565b613130816130eb565b811461313b57600080fd5b50565b60008135905061314d81613127565b92915050565b6000806040838503121561316a57613169612ef1565b5b60006131788582860161313e565b925050602061318985828601613089565b9150509250929050565b6000806000606084860312156131ac576131ab612ef1565b5b60006131ba8682870161313e565b93505060206131cb8682870161313e565b92505060406131dc86828701613089565b9150509250925092565b6131ef81613068565b82525050565b600060208201905061320a60008301846131e6565b92915050565b600081519050919050565b600082825260208201905092915050565b6000819050602082019050919050565b61324581613068565b82525050565b600082825260208201905092915050565b600061326782612fb6565b613271818561324b565b9350613281818560208601612fd2565b61328a81612ffc565b840191505092915050565b600060a0830160008301516132ad600086018261323c565b50602083015184820360208601526132c5828261325c565b915050604083015184820360408601526132df828261325c565b915050606083015184820360608601526132f9828261325c565b91505060808301518482036080860152613313828261325c565b9150508091505092915050565b600061332c8383613295565b905092915050565b6000602082019050919050565b600061334c82613210565b613356818561321b565b9350836020820285016133688561322c565b8060005b858110156133a457848403895281516133858582613320565b945061339083613334565b925060208a0199505060018101905061336c565b50829750879550505050505092915050565b600060208201905081810360008301526133d08184613341565b905092915050565b6000602082840312156133ee576133ed612ef1565b5b60006133fc8482850161313e565b91505092915050565b600080fd5b600080fd5b600080fd5b60008083601f84011261342a57613429613405565b5b8235905067ffffffffffffffff8111156134475761344661340a565b5b6020830191508360018202830111156134635761346261340f565b5b9250929050565b6000806000806000806000806080898b03121561348a57613489612ef1565b5b600089013567ffffffffffffffff8111156134a8576134a7612ef6565b5b6134b48b828c01613414565b9850985050602089013567ffffffffffffffff8111156134d7576134d6612ef6565b5b6134e38b828c01613414565b9650965050604089013567ffffffffffffffff81111561350657613505612ef6565b5b6135128b828c01613414565b9450945050606089013567ffffffffffffffff81111561353557613534612ef6565b5b6135418b828c01613414565b92509250509295985092959890939650565b61355c81612f80565b82525050565b6000604083016000830151848203600086015261357f8282613295565b91505060208301516135946020860182613553565b508091505092915050565b600060208201905081810360008301526135b98184613562565b905092915050565b6135ca81612f80565b81146135d557600080fd5b50565b6000813590506135e7816135c1565b92915050565b6000806040838503121561360457613603612ef1565b5b60006136128582860161313e565b9250506020613623858286016135d8565b9150509250929050565b600080fd5b7f4e487b7100000000000000000000000000000000000000000000000000000000600052604160045260246000fd5b61366a82612ffc565b810181811067ffffffffffffffff8211171561368957613688613632565b5b80604052505050565b600061369c612ee7565b90506136a88282613661565b919050565b600067ffffffffffffffff8211156136c8576136c7613632565b5b6136d182612ffc565b9050602081019050919050565b82818337600083830152505050565b60006137006136fb846136ad565b613692565b90508281526020810184848401111561371c5761371b61362d565b5b6137278482856136de565b509392505050565b600082601f83011261374457613743613405565b5b81356137548482602086016136ed565b91505092915050565b6000806000806080858703121561377757613776612ef1565b5b60006137858782880161313e565b94505060206137968782880161313e565b93505060406137a787828801613089565b925050606085013567ffffffffffffffff8111156137c8576137c7612ef6565b5b6137d48782880161372f565b91505092959194509250565b600080604083850312156137f7576137f6612ef1565b5b60006138058582860161313e565b92505060206138168582860161313e565b9150509250929050565b7f4e487b7100000000000000000000000000000000000000000000000000000000600052602260045260246000fd5b6000600282049050600182168061386757607f821691505b60208210810361387a57613879613820565b5b50919050565b7f4552433732313a20617070726f76616c20746f2063757272656e74206f776e6560008201527f7200000000000000000000000000000000000000000000000000000000000000602082015250565b60006138dc602183612fc1565b91506138e782613880565b604082019050919050565b6000602082019050818103600083015261390b816138cf565b9050919050565b7f4552433732313a20617070726f76652063616c6c6572206973206e6f7420746f60008201527f6b656e206f776e6572206f7220617070726f76656420666f7220616c6c000000602082015250565b600061396e603d83612fc1565b915061397982613912565b604082019050919050565b6000602082019050818103600083015261399d81613961565b9050919050565b7f4e487b7100000000000000000000000000000000000000000000000000000000600052603260045260246000fd5b7f4e487b7100000000000000000000000000000000000000000000000000000000600052601160045260246000fd5b6000613a0d82613068565b91507fffffffffffffffffffffffffffffffffffffffffffffffffffffffffffffffff8203613a3f57613a3e6139d3565b5b600182019050919050565b7f4552433732313a2063616c6c6572206973206e6f7420746f6b656e206f776e6560008201527f72206f7220617070726f76656400000000000000000000000000000000000000602082015250565b6000613aa6602d83612fc1565b9150613ab182613a4a565b604082019050919050565b60006020820190508181036000830152613ad581613a99565b9050919050565b7f4552433732313a20696e76616c696420746f6b656e2049440000000000000000600082015250565b6000613b12601883612fc1565b9150613b1d82613adc565b602082019050919050565b60006020820190508181036000830152613b4181613b05565b9050919050565b7f596f75206e65656420746f20736f6c766520746865206b617461206265666f7260008201527f6500000000000000000000000000000000000000000000000000000000000000602082015250565b6000613ba4602183612fc1565b9150613baf82613b48565b604082019050919050565b60006020820190508181036000830152613bd381613b97565b9050919050565b7f4552433732313a2061646472657373207a65726f206973206e6f74206120766160008201527f6c6964206f776e65720000000000000000000000000000000000000000000000602082015250565b6000613c36602983612fc1565b9150613c4182613bda565b604082019050919050565b60006020820190508181036000830152613c6581613c29565b9050919050565b60008190508160005260206000209050919050565b60006020601f8301049050919050565b600082821b905092915050565b600060088302613cce7fffffffffffffffffffffffffffffffffffffffffffffffffffffffffffffffff82613c91565b613cd88683613c91565b95508019841693508086168417925050509392505050565b6000819050919050565b6000613d15613d10613d0b84613068565b613cf0565b613068565b9050919050565b6000819050919050565b613d2f83613cfa565b613d43613d3b82613d1c565b848454613c9e565b825550505050565b600090565b613d58613d4b565b613d63818484613d26565b505050565b5b81811015613d8757613d7c600082613d50565b600181019050613d69565b5050565b601f821115613dcc57613d9d81613c6c565b613da684613c81565b81016020851015613db5578190505b613dc9613dc185613c81565b830182613d68565b50505b505050565b600082821c905092915050565b6000613def60001984600802613dd1565b1980831691505092915050565b6000613e088383613dde565b9150826002028217905092915050565b613e2182612fb6565b67ffffffffffffffff811115613e3a57613e39613632565b5b613e44825461384f565b613e4f828285613d8b565b600060209050601f831160018114613e825760008415613e70578287015190505b613e7a8582613dfc565b865550613ee2565b601f198416613e9086613c6c565b60005b82811015613eb857848901518255600182019150602085019450602081019050613e93565b86831015613ed55784890151613ed1601f891682613dde565b8355505b6001600288020188555050505b505050505050565b6000613ef582613068565b9150613f0083613068565b9250828203905081811115613f1857613f176139d3565b5b92915050565b7f4e6f7420666f756e640000000000000000000000000000000000000000000000600082015250565b6000613f54600983612fc1565b9150613f5f82613f1e565b602082019050919050565b60006020820190508181036000830152613f8381613f47565b9050919050565b7f4b61746120616c7265616479206f776e65640000000000000000000000000000600082015250565b6000613fc0601283612fc1565b9150613fcb82613f8a565b602082019050919050565b60006020820190508181036000830152613fef81613fb3565b9050919050565b600081905092915050565b600061400c82612fb6565b6140168185613ff6565b9350614026818560208601612fd2565b80840191505092915050565b600061403e8285614001565b915061404a8284614001565b91508190509392505050565b7f4e6f7420656e6f75676820637265646974730000000000000000000000000000600082015250565b600061408c601283612fc1565b915061409782614056565b602082019050919050565b600060208201905081810360008301526140bb8161407f565b9050919050565b7f6d696e696d756e20747279206973203230000000000000000000000000000000600082015250565b60006140f8601183612fc1565b9150614103826140c2565b602082019050919050565b60006020820190508181036000830152614127816140eb565b9050919050565b600061413982613068565b915061414483613068565b925082820261415281613068565b91508282048414831517614169576141686139d3565b5b5092915050565b7f796f75206e65656420746f207061792074686520726967687420616d6f756e74600082015250565b60006141a6602083612fc1565b91506141b182614170565b602082019050919050565b600060208201905081810360008301526141d581614199565b9050919050565b60006141e782613068565b91506141f283613068565b925082820190508082111561420a576142096139d3565b5b92915050565b7f4f776e61626c653a206e6577206f776e657220697320746865207a65726f206160008201527f6464726573730000000000000000000000000000000000000000000000000000602082015250565b600061426c602683612fc1565b915061427782614210565b604082019050919050565b6000602082019050818103600083015261429b8161425f565b9050919050565b7f4552433732313a207472616e736665722066726f6d20696e636f72726563742060008201527f6f776e6572000000000000000000000000000000000000000000000000000000602082015250565b60006142fe602583612fc1565b9150614309826142a2565b604082019050919050565b6000602082019050818103600083015261432d816142f1565b9050919050565b7f4552433732313a207472616e7366657220746f20746865207a65726f2061646460008201527f7265737300000000000000000000000000000000000000000000000000000000602082015250565b6000614390602483612fc1565b915061439b82614334565b604082019050919050565b600060208201905081810360008301526143bf81614383565b9050919050565b600060608201905081810360008301526143e0818661300d565b90506143ef60208301856130fd565b6143fc60408301846131e6565b949350505050565b7f4f776e61626c653a2063616c6c6572206973206e6f7420746865206f776e6572600082015250565b600061443a602083612fc1565b915061444582614404565b602082019050919050565b600060208201905081810360008301526144698161442d565b9050919050565b7f4552433732313a20617070726f766520746f2063616c6c657200000000000000600082015250565b60006144a6601983612fc1565b91506144b182614470565b602082019050919050565b600060208201905081810360008301526144d581614499565b9050919050565b7f4552433732313a207472616e7366657220746f206e6f6e20455243373231526560008201527f63656976657220696d706c656d656e7465720000000000000000000000000000602082015250565b6000614538603283612fc1565b9150614543826144dc565b604082019050919050565b600060208201905081810360008301526145678161452b565b9050919050565b7f4e487b7100000000000000000000000000000000000000000000000000000000600052601260045260246000fd5b600060808201905081810360008301526145b7818761300d565b90506145c660208301866130fd565b6145d360408301856131e6565b6145e060608301846131e6565b95945050505050565b600081519050919050565b600082825260208201905092915050565b6000614610826145e9565b61461a81856145f4565b935061462a818560208601612fd2565b61463381612ffc565b840191505092915050565b600060808201905061465360008301876130fd565b61466060208301866130fd565b61466d60408301856131e6565b818103606083015261467f8184614605565b905095945050505050565b60008151905061469981612f27565b92915050565b6000602082840312156146b5576146b4612ef1565b5b60006146c38482850161468a565b91505092915050565b7f4552433732313a206d696e7420746f20746865207a65726f2061646472657373600082015250565b6000614702602083612fc1565b915061470d826146cc565b602082019050919050565b60006020820190508181036000830152614731816146f5565b9050919050565b7f4552433732313a20746f6b656e20616c7265616479206d696e74656400000000600082015250565b600061476e601c83612fc1565b915061477982614738565b602082019050919050565b6000602082019050818103600083015261479d81614761565b905091905056fea2646970667358221220fe5ca419e0dfd6dc3d9ee44a561adbddaa2831a924281d117e63bc553a60eca464736f6c63430008110033",
  "linkReferences": {},
  "deployedLinkReferences": {}
}